:100000000C942A000C943F000C943F000C943F0089
:100010000C943F000C943F000C943F000C943F0064
:100020000C943F000C943F000C943F000C943F0054
:100030000C943F000C943F000C943F000C943F0044
:100040000C943F000C943F000C943F000C943F0034
:100050000C943F0011241FBECFE5D8E0DEBFCDBF1A
:1000600011E0A0E6B0E0EAE0FDE102C005900D92EB
:10007000AC36B107D9F70E943D0E0C94830E0C9458
:100080000000EF92FF920F931F937B018C0120E001
:1000900030E040E05FE40E94BD0388238CF0C8019B
:1000A000B70120E030E040E05FE40E94B9010E9427
:1000B0004B049B01AC01205030404040504806C0EA
:1000C000C801B7010E944B049B01AC01B901CA01F0
:1000D0001F910F91FF90EF900895A0E0B0E0E3E74B
:1000E000F0E00C944C0EDC012B01FA019C91923053
:1000F00008F439C1EB018881823008F433C19430AF
:1001000069F4843009F02FC111969C91119789816F
:10011000981709F428C1A0E6B0E025C1843009F49D
:1001200021C18230A9F4923009F01DC19A01AD01BC
:1001300088E0EA010990AE01E90109929E0181502F
:10014000C1F7E201898111969C918923818308C1BD
:10015000923009F407C112962D903C901397EB0151
:100160008A819B811496AD90BD90CD90DC901797BD
:10017000EC80FD800E811F819101281B390BB90194
:1001800037FF04C066277727621B730B6032710547
:100190000CF061C0121613066CF537014801062EEB
:1001A00004C096948794779467940A94D2F721E0D8
:1001B00030E040E050E004C0220F331F441F551FC1
:1001C0006A95D2F721503040404050402E213F21C7
:1001D00040235123211531054105510521F021E02E
:1001E00030E040E050E079018A01E628F72808294C
:1001F00019293CC0232BD1F1260E371E35014601AB
:10020000062E04C096948794779467940A94D2F744
:1002100021E030E040E050E004C0220F331F441FD3
:10022000551F6A95D2F721503040404050402A2156
:100230003B214C215D21211531054105510521F05E
:1002400021E030E040E050E059016A01A628B728DB
:10025000C828D9280BC0821593052CF01C01AA24AC
:10026000BB24650103C0EE24FF24870111969C91F5
:10027000D20111968C91981709F445C0992339F051
:10028000A80197012A193B094C095D0906C0A6017E
:1002900095012E193F09400B510B57FD08C01182E3
:1002A0003382228224833583468357831DC081E0B5
:1002B00081833382228288279927DC01821B930B5A
:1002C000A40BB50B84839583A683B7830DC0220F3F
:1002D000331F441F551F24833583468357838281F0
:1002E000938101979383828324813581468157814D
:1002F000DA01C9010197A109B1098F5F9F4FAF4F83
:10030000BF4328F30BC0918333822282EA0CFB1C8B
:100310000C1D1D1DE482F5820683178383E0808314
:10032000248135814681578157FF1AC0C901AA2708
:1003300097FDA095BA2F81709070A070B0705695FF
:10034000479537952795822B932BA42BB52B848328
:100350009583A683B7838281938101969383828359
:10036000DF0101C0D201CD01CDB7DEB7E2E10C94CF
:10037000680EA0E2B0E0EFEBF1E00C94580E698358
:100380007A838B839C832D833E834F835887E9E058
:10039000EE2EF12CEC0EFD1ECE010196B7010E944F
:1003A000C3058E010F5E1F4FCE010596B8010E9456
:1003B000C3058A8991E089278A8BC701B801AE01FC
:1003C000475E5F4F0E946D000E94EE04A096E6E03B
:1003D0000C94740EA0E2B0E0E0EFF1E00C94580E43
:1003E00069837A838B839C832D833E834F835887D5
:1003F000F9E0EF2EF12CEC0EFD1ECE010196B701B7
:100400000E94C3058E010F5E1F4FCE010596B801F5
:100410000E94C305C701B801AE01475E5F4F0E944D
:100420006D000E94EE04A096E6E00C94740EA0E22B
:10043000B0E0EDE1F2E00C944C0E69837A838B839B
:100440009C832D833E834F835887CE010196BE0146
:10045000675F7F4F0E94C305CE010596BE016F5EA8
:100460007F4F0E94C3059985923088F08989823038
:10047000C8F0943019F4823051F404C0843029F467
:10048000923081F480E690E0C6C0923049F420E0DA
:100490009A858A89981321E02A87CE010996BBC0E4
:1004A000823049F420E09A858A89981321E02A8BCA
:1004B000CE014196B0C02D843E844F8458886D880B
:1004C0007E888F88988CEE24FF248701AA24BB2481
:1004D000650140E050E060E070E0E0E0F0E0C10184
:1004E00081709070892BE9F0E60CF71C081D191D2E
:1004F0009A01AB012A0D3B1D4C1D5D1D80E090E073
:10050000A0E0B0E0E614F7040805190520F481E046
:1005100090E0A0E0B0E0BA01A901480F591F6A1F9E
:100520007B1FAA0CBB1CCC1CDD1C97FE08C081E005
:1005300090E0A0E0B0E0A82AB92ACA2ADB2A3196C6
:10054000E032F10549F0660C771C881C991C569422
:10055000479437942794C3CFFA85EA892B893C893D
:100560008B859C85280F391F2E5F3F4F17C0CA010E
:1005700081709070892B61F016950795F794E79438
:1005800080E090E0A0E0B0E8E82AF92A0A2B1B2BD3
:1005900076956795579547952F5F3F4F77FDE7CF46
:1005A0000CC0440F551F661F771F17FD4160EE0CEE
:1005B000FF1C001F111F21503040403090E05907B0
:1005C00090E0690790E4790760F32B8F3C8FDB01A3
:1005D000CA018F779070A070B07080349105A1052A
:1005E000B10561F447FD0AC0E114F10401051105EC
:1005F00029F0405C5F4F6F4F7F4F40781A8EFE1797
:1006000011F081E08A8F4D8F5E8F6F8F78A383E02A
:10061000898FCE0149960E94EE04A096E2E10C94E7
:10062000680EA8E1B0E0E7E1F3E00C94540E6983B2
:100630007A838B839C832D833E834F835887B9E0D5
:10064000EB2EF12CEC0EFD1ECE010196B7010E949F
:10065000C3058E010F5E1F4FCE010596B8010E94A3
:10066000C3052985223008F47EC03989323010F460
:10067000B8017CC08A859A8989278A87243011F03D
:10068000223031F4231709F06EC060E670E06EC0CE
:10069000343039F41D861E861F86188A1C861B86F8
:1006A00004C0323021F484E08987B7015FC02B8514
:1006B0003C858B899C89281B390B3C872B87ED84D3
:1006C000FE840F851889AD88BE88CF88D88CEA143F
:1006D000FB040C051D0540F4EE0CFF1C001F111F50
:1006E000215030403C872B8720E030E040E050E054
:1006F00080E090E0A0E0B0E460E070E0EA14FB0489
:100700000C051D0540F0282B392B4A2B5B2BEA18D2
:10071000FB080C091D09B695A79597958795EE0CD2
:10072000FF1C001F111F6F5F7F4F6F31710531F785
:10073000DA01C9018F779070A070B0708034910594
:10074000A105B10561F427FD0AC0E114F10401051A
:10075000110529F0205C3F4F4F4F5F4F20782D87C8
:100760003E874F87588BBE01675F7F4FCB010E944A
:10077000EE046896EAE00C94700EA8E1B0E0E3ECB9
:10078000F3E00C94580E69837A838B839C832D83CA
:100790003E834F83588789E0E82EF12CEC0EFD1E36
:1007A000CE010196B7010E94C3058E010F5E1F4F57
:1007B000CE010596B8010E94C3058985823040F0BC
:1007C0008989823028F0C701B8010E943B0601C028
:1007D0008FEF6896E6E00C94740EA8E0B0E0E3EFCB
:1007E000F3E00C94550E9B01AC0183E08983DA01A0
:1007F000C9018827B7FD83959927AA27BB27B82E5B
:10080000211531054105510519F482E089833AC06B
:100810008823A9F0203080E0380780E0480780E88E
:10082000580729F460E070E080E09FEC30C0EE24CF
:10083000FF248701E21AF30A040B150B02C07901A9
:100840008A018EE1C82ED12CDC82CB82ED82FE8221
:100850000F831887C801B7010E949F0401971816DB
:10086000190684F4082E04C0EE0CFF1C001F111F93
:100870000A94D2F7ED82FE820F831887C81AD90A2C
:10088000DC82CB82BA82CE0101960E94EE042896C9
:10089000E9E00C94710EACE0B0E0E1E5F4E00C941A
:1008A0005C0E69837A838B839C83CE010196BE01A3
:1008B0006B5F7F4F0E94C3058D81823061F1823072
:1008C00050F1843021F48E81882351F12EC02F8184
:1008D000388537FD20C06E812F3131051CF066232D
:1008E000F9F023C08EE190E0821B930B29853A85B5
:1008F0004B855C8504C056954795379527958A9515
:10090000D2F76623B1F050954095309521953F4F31
:100910004F4F5F4F0EC020E030E040E050E009C094
:100920002FEF3FEF4FEF5FE704C020E030E040E003
:1009300050E8B901CA012C96E2E00C94780EEF92CF
:10094000FF920F931F937B018C0180E0E81680E0FB
:10095000F80681E0080780E0180788F48FEFE816B2
:10096000F1040105110531F028F088E090E0A0E0E5
:10097000B0E017C080E090E0A0E0B0E012C080E0FE
:10098000E81680E0F80680E0080781E0180728F004
:1009900088E190E0A0E0B0E004C080E190E0A0E059
:1009A000B0E020E230E040E050E0281B390B4A0B79
:1009B0005B0B04C016950795F794E7948A95D2F7D8
:1009C000F701E859FF4F8081281B3109410951097E
:1009D000C9011F910F91FF90EF900895DF92EF9260
:1009E000FF920F931F93FC01E480F580068117812D
:1009F000D1808081823048F480E090E0A0E1B0E0D6
:100A0000E82AF92A0A2B1B2BA5C0843009F49FC0C1
:100A1000823021F4EE24FF24870105C0E114F104A3
:100A20000105110519F4E0E0F0E096C062817381E0
:100A30009FEF623879070CF05BC022E83FEF261B7E
:100A4000370B2A3131052CF020E030E040E050E057
:100A50002AC0B801A701022E04C076956795579564
:100A600047950A94D2F781E090E0A0E0B0E004C09E
:100A7000880F991FAA1FBB1F2A95D2F70197A109BA
:100A8000B1098E219F21A023B1230097A105B105B3
:100A900021F081E090E0A0E0B0E09A01AB01282BCA
:100AA000392B4A2B5B2BDA01C9018F779070A0702C
:100AB000B07080349105A105B10539F427FF09C054
:100AC000205C3F4F4F4F5F4F04C0215C3F4F4F4F63
:100AD0005F4FE0E0F0E02030A0E03A07A0E04A07F6
:100AE000A0E45A0710F0E1E0F0E079018A0127C0A4
:100AF0006038710564F5FB01E158FF4FD801C7016B
:100B00008F779070A070B07080349105A105B10509
:100B100039F4E7FE0DC080E490E0A0E0B0E004C04E
:100B20008FE390E0A0E0B0E0E80EF91E0A1F1B1F63
:100B300017FF05C016950795F794E794319687E05F
:100B400016950795F794E7948A95D1F705C0EE249A
:100B5000FF248701EFEFF0E06E2F6795662767951A
:100B6000902F9F77D794DD24D7948E2F8695492F89
:100B7000462B582F5D29B701CA011F910F91FF9095
:100B8000EF90DF900895FC01DB01408151812281CB
:100B9000622F6F7770E0221F2227221F9381892FF7
:100BA000880F822B282F30E0991F9927991F1196C3
:100BB0009C93119721153105A9F541155105610542
:100BC000710511F482E037C082E89FEF13969C9381
:100BD0008E9312979A01AB0167E0220F331F441FD7
:100BE000551F6A95D1F783E08C930DC0220F331FF8
:100BF000441F551F12968D919C9113970197139640
:100C00009C938E931297203080E0380780E048074D
:100C100080E4580758F314962D933D934D935C93BD
:100C2000179708952F3F310579F441155105610556
:100C3000710519F484E08C93089564FF03C081E08A
:100C40008C9312C01C9210C02F57304013963C93C7
:100C50002E93129783E08C9387E0440F551F661FF5
:100C6000771F8A95D1F7706414964D935D936D93B9
:100C70007C93179708951F93DC01FB019C919230A0
:100C800008F447C08081823008F443C0943051F4A6
:100C900011961C91843099F58181682F70E0611B59
:100CA00071093FC0843021F0923031F48230B9F1C3
:100CB0008181882389F12DC011961C911197823072
:100CC000F1F081811817D9F412962D913C91139768
:100CD000828193818217930794F028173907BCF01B
:100CE00014968D919D910D90BC91A02D24813581FC
:100CF00046815781281739074A075B0718F41123E3
:100D000041F00AC082179307A407B50740F41123E6
:100D100019F061E070E005C06FEF7FEF02C060E0A6
:100D200070E0CB011F910895DF93CF930F92CDB761
:100D3000DEB7AFE4B0E0EFE4F0E080818C7F81606B
:100D40008C93AEE4B0E0EEE4F0E08081877E8860D2
:100D50008C93AFE4B0E0EFE4F0E080818F738068C3
:100D60008C93AFE4B0E0EFE4F0E080818F7C8062B0
:100D70008C930F90CF91DF910895DF93CF9300D0A4
:100D800000D0CDB7DEB789838981282F30E03B833F
:100D90002A838A819B818130910531F02A813B81B0
:100DA0002230310551F011C0AEE4B0E0EEE4F0E0E5
:100DB0008081887F85608C9308C0AEE4B0E0EEE46B
:100DC000F0E08081887F85608C930F900F900F906A
:100DD0000F90CF91DF910895DF93CF9300D000D093
:100DE000CDB7DEB789838981282F30E03B832A8302
:100DF0008A819B818130910531F02A813B812230AB
:100E0000310549F00FC0AEE4B0E0EEE4F0E08081DF
:100E1000887F8C9307C0AEE4B0E0EEE4F0E0808120
:100E2000887F8C930F900F900F900F90CF91DF9150
:100E30000895DF93CF9300D000D0CDB7DEB789837C
:100E40008981282F30E03B832A838A819B818130EE
:100E5000910531F02A813B812230310551F011C0DA
:100E6000AFE4B0E0EFE4F0E080818F7380688C93B2
:100E700008C0AFE4B0E0EFE4F0E080818F7C8062F6
:100E80008C930F900F900F900F90CF91DF9108955A
:100E9000DF93CF9300D000D0CDB7DEB789838981AF
:100EA000282F30E03B832A838A819B818130910502
:100EB00031F02A813B812230310549F00FC0AFE487
:100EC000B0E0EFE4F0E080818F738C9307C0AFE473
:100ED000B0E0EFE4F0E080818F7C8C930F900F9076
:100EE0000F900F90CF91DF9108950F931F93DF9391
:100EF000CF9300D000D00F92CDB7DEB789836A833D
:100F00008981282F30E03C832B838B819C81813029
:100F1000910531F0EB81FC81E230F105C1F16DC04A
:100F20000AE410E08A81882F90E0AA2797FDA09517
:100F3000BA2FBC01CD010E94ED03DC01CB01BC0145
:100F4000CD0120E030E048EC52E40E941103DC01C6
:100F5000CB01BC01CD0120E030E040E853E40E9429
:100F60001702DC01CB01BC01CD0120E030E040E8FC
:100F70005FE30E94B901DC01CB01BC01CD010E94FD
:100F80004100DC01CB01F8019183808336C008E485
:100F900010E08A81882F90E0AA2797FDA095BA2FAC
:100FA000BC01CD010E94ED03DC01CB01BC01CD01F0
:100FB00020E030E048EC52E40E941103DC01CB0158
:100FC000BC01CD0120E030E040E853E40E9417026C
:100FD000DC01CB01BC01CD0120E030E040E85FE363
:100FE0000E94B901DC01CB01BC01CD010E9441008E
:100FF000DC01CB01F801918380830F900F900F905B
:101000000F900F90CF91DF911F910F910895DF9373
:10101000CF9300D000D000D0CDB7DEB789836A83EC
:101020004B838981282F30E03D832C836C817D8127
:1010300061307105D1F18C819D818230910534F44C
:101040002C813D812115310571F094C06C817D8129
:101050006230710509F44BC08C819D81833091050C
:1010600009F467C087C0AAE3B0E0EAE3F0E080815A
:10107000482F8A81282F30E081E090E002C0880F5D
:10108000991F2A95E2F7809548238B81282F30E01D
:101090008A81882F90E0B90102C0660F771F8A9578
:1010A000E2F7CB01842B8C9365C0A7E3B0E0E7E3C4
:1010B000F0E08081482F8A81282F30E081E090E0A5
:1010C00002C0880F991F2A95E2F7809548238B81EB
:1010D000282F30E08A81882F90E0B90102C0660F86
:1010E000771F8A95E2F7CB01842B8C9343C0A4E34E
:1010F000B0E0E4E3F0E08081482F8A81282F30E0DF
:1011000081E090E002C0880F991F2A95E2F7809550
:1011100048238B81282F30E08A81882F90E0B90105
:1011200002C0660F771F8A95E2F7CB01842B8C9360
:1011300021C0A1E3B0E0E1E3F0E08081482F8A81A3
:10114000282F30E081E090E002C0880F991F2A9597
:10115000E2F7809548238B81282F30E08A81882F01
:1011600090E0B90102C0660F771F8A95E2F7CB01C4
:10117000842B8C9326960FB6F894DEBF0FBECDBF9E
:10118000CF91DF910895DF93CF9300D000D000D0AE
:10119000CDB7DEB789836A834B838981282F30E0FE
:1011A0003D832C836C817D8161307105D1F18C810F
:1011B0009D818230910534F42C813D8121153105CA
:1011C00071F094C06C817D816230710509F44BC06F
:1011D0008C819D818330910509F467C087C0ABE3A2
:1011E000B0E0EBE3F0E08081482F8A81282F30E0E7
:1011F00081E090E002C0880F991F2A95E2F7809560
:1012000048238B81282F30E08A81882F90E0B90114
:1012100002C0660F771F8A95E2F7CB01842B8C936F
:1012200065C0A8E3B0E0E8E3F0E08081482F8A8160
:10123000282F30E081E090E002C0880F991F2A95A6
:10124000E2F7809548238B81282F30E08A81882F10
:1012500090E0B90102C0660F771F8A95E2F7CB01D3
:10126000842B8C9343C0A5E3B0E0E5E3F0E08081FC
:10127000482F8A81282F30E081E090E002C0880F5B
:10128000991F2A95E2F7809548238B81282F30E01B
:101290008A81882F90E0B90102C0660F771F8A9576
:1012A000E2F7CB01842B8C9321C0A2E3B0E0E2E310
:1012B000F0E08081482F8A81282F30E081E090E0A3
:1012C00002C0880F991F2A95E2F7809548238B81E9
:1012D000282F30E08A81882F90E0B90102C0660F84
:1012E000771F8A95E2F7CB01842B8C9326960FB655
:1012F000F894DEBF0FBECDBFCF91DF910895DF938D
:10130000CF9300D000D00F92CDB7DEB789836A8328
:101310008981282F30E03C832B838B819C81813015
:10132000910549F12B813C81223031052CF48B81D0
:101330009C81009761F05AC02B813C81223031059D
:1013400071F18B819C8183309105E9F14FC0ABE352
:10135000B0E0EBE3F0E08081482F8A81282F30E075
:1013600081E090E0022E02C0880F991F0A94E2F7F4
:1013700084278C933BC0A8E3B0E0E8E3F0E08081F1
:10138000482F8A81282F30E081E090E0022E02C0B1
:10139000880F991F0A94E2F784278C9327C0A5E34E
:1013A000B0E0E5E3F0E08081482F8A81282F30E02B
:1013B00081E090E0022E02C0880F991F0A94E2F7A4
:1013C00084278C9313C0A2E3B0E0E2E3F0E08081D5
:1013D000482F8A81282F30E081E090E0022E02C061
:1013E000880F991F0A94E2F784278C930F900F902F
:1013F0000F900F900F90CF91DF910895DF93CF93CF
:10140000CDB7DEB727970FB6F894DEBF0FBECDBFBE
:1014100089836A835C834B838981282F30E03E83F4
:101420002D834D815E814130510559F18D819E8121
:101430008230910534F42D813E812115310569F00A
:101440005BC04D815E814230510579F18D819E8175
:101450008330910509F43DC04FC0E9E3F0E080819D
:10146000282F30E08A81882F90E0A90102C055958D
:1014700047958A95E2F7CA018170EB81FC818083F0
:101480003BC0E6E3F0E08081282F30E08A81882F9E
:1014900090E0A90102C0559547958A95E2F7CA01E7
:1014A0008170EB81FC81808327C0E3E3F0E08081E1
:1014B000282F30E08A81882F90E0A90102C055953D
:1014C00047958A95E2F7CA018170EB81FC818083A0
:1014D00013C0E0E3F0E08081282F30E08A81882F7C
:1014E00090E0A90102C0559547958A95E2F7CA0197
:1014F0008170EB81FC81808327960FB6F894DEBF64
:101500000FBECDBFCF91DF910895DF93CF9300D071
:1015100000D00F92CDB7DEB789836A838981282FE7
:1015200030E03C832B838B819C8181309105B9F124
:101530002B813C81223031052CF48B819C810097DA
:1015400071F08CC02B813C812230310509F447C0F9
:101550008B819C818330910509F461C07FC0ABE32E
:10156000B0E0EBE3F0E08081482F8A81282F30E063
:1015700081E090E002C0880F991F2A95E2F78095DC
:1015800048238A81282F30E081E090E0022E02C0BB
:10159000880F991F0A94E2F7842B8C935FC0A8E30D
:1015A000B0E0E8E3F0E08081482F8A81282F30E026
:1015B00081E090E002C0880F991F2A95E2F780959C
:1015C00048238A81282F30E081E090E0022E02C07B
:1015D000880F991F0A94E2F7842B8C933FC0A5E3F0
:1015E000B0E0E5E3F0E08081482F8A81282F30E0E9
:1015F00081E090E002C0880F991F2A95E2F780955C
:1016000048238A81282F30E081E090E0022E02C03A
:10161000880F991F0A94E2F7842B8C931FC0A2E3D2
:10162000B0E0E2E3F0E08081482F8A81282F30E0AB
:1016300081E090E002C0880F991F2A95E2F780951B
:1016400048238A81282F30E081E090E0022E02C0FA
:10165000880F991F0A94E2F7842B8C930F900F90B8
:101660000F900F900F90CF91DF910895DF93CF935C
:10167000CDB7DEB70E94940683E064E041E00E94AB
:10168000070883E062E041E00E94070883E063E02E
:1016900041E00E94070883E065E041E00E940708FE
:1016A00083E066E041E00E94070883E067E041E0F4
:1016B0000E94070881E00E94BD06CF91DF91089546
:1016C000DF93CF93CDB7DEB729970FB6F894DEBF7F
:1016D0000FBECDBF89836A834B838981282F30E079
:1016E0003987288788859985009731F0288539853D
:1016F0002130310569F156C081E06A810E94750789
:1017000081E00E9419078B81282F30E03F832E83D0
:101710008E819F81009789F02E813F812130310594
:1017200009F040C083E062E041E00E94C30883E02A
:1017300063E040E00E94C30835C083E062E040E01F
:101740000E94C30883E063E041E00E94C3082AC00E
:1017500082E06A810E94750782E00E9419078B81EE
:10176000282F30E03D832C838C819D81009781F070
:101770002C813D8121303105A9F483E066E041E010
:101780000E94C30883E067E040E00E94C3080AC0EB
:1017900083E066E040E00E94C30883E067E041E048
:1017A0000E94C30829960FB6F894DEBF0FBECDBFC6
:1017B000CF91DF910895DF93CF9300D00F92CDB7F3
:1017C000DEB789838981282F30E03B832A838A8191
:1017D0009B81009731F02A813B812130310551F006
:1017E00011C081E00E94480783E064E040E00E946D
:1017F000C30808C082E00E94480783E065E040E03B
:101800000E94C3080F900F900F90CF91DF91089521
:10181000DF93CF9300D000D0CDB7DEB789836A8342
:101820008981282F30E03C832B838B819C8100971A
:1018300031F02B813C812130310531F009C081E04C
:101840006A810E94750704C082E06A810E94750760
:101850000F900F900F900F90CF91DF910895DF932D
:10186000CF93CDB7DEB728970FB6F894DEBF0FBE83
:10187000CDBF89836A838981282F30E038872F8301
:101880008F819885009731F02F813885213031057F
:1018900029F147C08A81282F30E03E832D838D8136
:1018A0009E81009781F02D813E8121303105C9F55F
:1018B00083E062E041E00E94C30883E063E040E02F
:1018C0000E94C3082EC083E062E040E00E94C3088B
:1018D00083E063E041E00E94C30823C08A81282F8F
:1018E00030E03C832B838B819C81009781F02B819E
:1018F0003C8121303105A9F483E066E041E00E949B
:10190000C30883E067E040E00E94C3080AC083E0A8
:1019100066E040E00E94C30883E067E041E00E9487
:10192000C30828960FB6F894DEBF0FBECDBFCF9187
:10193000DF910895DF93CF9300D000D0CDB7DEB70D
:101940008A836B834C8319828A816B8140E00E9479
:1019500007088C81882321F48A816B810E94850A83
:1019600089810F900F900F900F90CF91DF91089584
:10197000DF93CF9300D00F92CDB7DEB78A836B830E
:1019800019828A816B810E94850A898389810F90DF
:101990000F900F90CF91DF910895DF93CF93CDB744
:1019A000DEB727970FB6F894DEBF0FBECDBF8E838C
:1019B0006F8381E089838E816F819E012F5F3F4F0E
:1019C000A9010E94FE098981882331F51B821A82B0
:1019D00015C01C820BC01D8203C08D818F5F8D835B
:1019E0008D818431D0F38C818F5F8C838C818031A9
:1019F00090F38A819B8101969B838A838A819B8154
:101A000023E0883E920728F38E816F819E012F5F2D
:101A10003F4FA9010E94FE09898127960FB6F894CD
:101A2000DEBF0FBECDBFCF91DF910895DF93CF937F
:101A300000D0CDB7DEB781E062E00E94CD0C898393
:101A40008981882311F41A8223C082E065E00E9414
:101A5000CD0C89838981882319F481E08A8318C099
:101A600082E066E00E94CD0C89838981882319F485
:101A700082E08A830DC082E067E00E94CD0C8983FA
:101A80008981882319F483E08A8302C084E08A83F1
:101A90008A810F900F90CF91DF910895DF93CF93BC
:101AA00000D00F92CDB7DEB789838981282F30E02F
:101AB0003B832A838A819B818230910509F444C04B
:101AC0002A813B812330310554F48A819B81009720
:101AD00091F02A813B812130310559F174C08A810E
:101AE0009B8183309105D9F12A813B8124303105D6
:101AF00009F463C068C080916901882359F480E0CB
:101B00006EE140E00E94600B81E06EE140E00E94E7
:101B1000600B59C09091680180E0692F41E00E94FC
:101B2000600B9091680181E0692F41E00E94600B99
:101B30004AC080E06EE141E00E94600B81E06EE10E
:101B400040E00E94600B3FC080E06EE140E00E94F8
:101B5000600B81E06EE141E00E94600B34C0809137
:101B600068018E3141F480916901813021F48CE368
:101B70008093680128C0809168018C3321F48AE544
:101B80008093680120C0809168018A3531F48EE12C
:101B9000809368011092690116C0809168018E31AE
:101BA00041F480916901882321F481E080936901E7
:101BB0000AC084E080936A0106C080E00E94DB0BCB
:101BC00081E00E94DB0B0F900F900F90CF91DF917F
:101BD0000895DF93CF9300D0CDB7DEB70E94360BC8
:101BE00082E062E041E00E94070881E062E040E0BC
:101BF0000E949A0C898382E065E040E00E949A0C82
:101C0000982F8981892B898382E066E040E00E94D9
:101C10009A0C982F8981892B898382E067E040E0C4
:101C20000E949A0C982F8981892B89838981882326
:101C300019F081E08A8301C01A828A810F900F9087
:101C4000CF91DF910895DF93CF93CDB7DEB70E9498
:101C5000160D80936A0190916B0180916A0198172B
:101C600021F080916A010E944E0D80916A0180935B
:101C70006B0180E0CF91DF910895DF93CF930F92B6
:101C8000CDB7DEB70E94E90D89838981882309F0E9
:101C9000FFCF0E94230EFDCF2F923F924F925F9273
:101CA0006F927F928F929F92AF92BF92CF92DF926C
:101CB000EF92FF920F931F93CF93DF93CDB7DEB7D1
:101CC000CA1BDB0B0FB6F894DEBF0FBECDBF099465
:101CD0002A88398848885F846E847D848C849B84BC
:101CE000AA84B984C884DF80EE80FD800C811B81CA
:101CF000AA81B981CE0FD11D0FB6F894DEBF0FBEF9
:0A1D0000CDBFED010895F894FFCF68
:101D0A0000000000000000000001020203030303B8
:101D1A000404040404040404050505050505050571
:101D2A000505050505050505060606060606060651
:101D3A000606060606060606060606060606060639
:101D4A000606060606060606070707070707070721
:101D5A000707070707070707070707070707070709
:101D6A0007070707070707070707070707070707F9
:101D7A0007070707070707070707070707070707E9
:101D8A0007070707070707070808080808080808D1
:101D9A0008080808080808080808080808080808B9
:101DAA0008080808080808080808080808080808A9
:101DBA000808080808080808080808080808080899
:101DCA000808080808080808080808080808080889
:101DDA000808080808080808080808080808080879
:101DEA000808080808080808080808080808080869
:101DFA000808080808080808080808080808080859
:0C1E0A0008080808080808081E01040465
:00000001FF
