S01E000054657374696E674F627365727665725061747465726E2E7372656302
S11300000C942A000C9447000C9447000C9447006D
S11300100C9447000C9447000C9447000C94470040
S11300200C9447000C9447000C9447000C94470030
S11300300C9447000C9447000C9447000C94470020
S11300400C9447000C9447000C9447000C94470010
S11300500C94470011241FBECFE5D8E0DEBFCDBF0E
S113006010E0A0E6B0E0E8E2FEE002C005900D92E8
S1130070A637B107D9F720E0A6E7B0E001C01D928A
S1130080A837B207E1F70E9435060C9412070C94C6
S11300900000CF93DF9300D000D0CDB7DEB79A83B2
S11300A089837C836B838B819C81892BE1F089819B
S11300B09A81FC018485882F90E029813A810196F8
S11300C0880F991F820F931F2B813C81FC01318380
S11300D0208389819A81FC01848521E0280F89810C
S11300E09A81FC01248700000F900F900F900F90CD
S11300F0DF91CF910895CF93DF9300D01F92CDB7B6
S1130100DEB79B838A8319828A819B81FC012081CB
S11301108A819B81FC018181281701F18A819B815D
S1130120FC0121818A819B81FC01208314C0898187
S1130130882F90E02A813B810196880F991F820FB6
S1130140931FFC01208131818A819B81F9010995EA
S113015089818F5F89838981863048F300000F90FD
S11301600F900F90DF91CF910895CF93DF9300D03C
S113017000D0CDB7DEB78A836B834C8319828A8122
S1130180853008F0EAC08B81883008F0E6C08C81A5
S1130190813009F06BC08A81882F90E0823091050C
S11301A011F1833091051CF4019741F05BC0833059
S11301B0910571F1049709F440C054C08AE390E0BA
S11301C02AE330E0F9012081622F2B81422F50E095
S11301D021E030E002C0220F331F4A95E2F7262BBC
S11301E0FC012083B9C087E390E027E330E0F90104
S11301F02081622F2B81422F50E021E030E002C0A9
S1130200220F331F4A95E2F7262BFC012083A4C05A
S113021084E390E024E330E0F9012081622F2B8114
S1130220422F50E021E030E002C0220F331F4A95F4
S1130230E2F7262BFC0120838FC081E390E021E3C9
S113024030E0F9012081622F2B81422F50E021E020
S113025030E002C0220F331F4A95E2F7262BFC013F
S113026020837AC081E08983000076C08C81882352
S113027009F06FC08A81882F90E08230910519F1CE
S1130280833091051CF4019741F05FC083309105E0
S113029081F1049709F443C058C08AE390E02AE34B
S11302A030E0F9012081622F2B81422F50E021E0C0
S11302B030E002C0220F331F4A95E2F7209526232F
S11302C0FC01208349C087E390E027E330E0F90193
S11302D02081622F2B81422F50E021E030E002C0C8
S11302E0220F331F4A95E2F720952623FC01208331
S11302F033C084E390E024E330E0F9012081622FED
S11303002B81422F50E021E030E002C0220F331F46
S11303104A95E2F720952623FC0120831DC081E342
S113032090E021E330E0F9012081622F2B81422FFC
S113033050E021E030E002C0220F331F4A95E2F77B
S113034020952623FC01208307C081E089830000D7
S113035003C081E0898303C002C081E0898389816D
S11303600F900F900F900F90DF91CF910895CF933E
S1130370DF9300D01F92CDB7DEB78A836B831982D7
S11303808A81853008F094C08B81883008F090C051
S11303908A81882F90E08230910561F18330910544
S11303A01CF4019749F080C08330910509F440C0E2
S11303B0049709F45BC078C08AE390E0FC01808173
S11303C08823A9F48BE390E02BE330E0F90120814A
S11303D0622F2B81422F50E021E030E002C0220F37
S11303E0331F4A95E2F7262BFC01208360C081E08D
S11303F089835DC087E390E0FC0180818823A9F4B0
S113040088E390E028E330E0F9012081622F2B811A
S1130410422F50E021E030E002C0220F331F4A9502
S1130420E2F7262BFC01208342C081E089833FC090
S113043084E390E0FC0180818823A9F485E390E0C3
S113044025E330E0F9012081622F2B81422F50E017
S113045021E030E002C0220F331F4A95E2F7262B39
S1130460FC01208324C081E0898321C081E390E0E2
S1130470FC0180818823A9F482E390E022E330E048
S1130480F9012081622F2B81422F50E021E030E0DE
S113049002C0220F331F4A95E2F7262BFC0120836A
S11304A006C081E0898303C081E08983000002C023
S11304B081E0898389810F900F900F90DF91CF9114
S11304C00895CF93DF9300D000D0CDB7DEB78A83F1
S11304D06B834C8319828A81853008F0E6C18B8155
S11304E0883008F0E2C18C81813009F0E9C08A814A
S11304F0882F90E08230910509F442C08330910541
S11305001CF4019749F0D8C08330910509F46CC0FC
S1130510049709F49DC0D0C08AE390E0FC01808177
S1130520282F30E08B81482F50E081E090E002C01A
S1130530880F991F4A95E2F7822393232B81222F58
S113054030E002C0959587952A95E2F70197A9F4C2
S11305508BE390E02BE330E0F9012081622F2B81C3
S1130560422F50E021E030E002C0220F331F4A95B1
S1130570E2F7262BFC01208397C181E0898394C193
S113058087E390E0FC018081282F30E08B81482FA5
S113059050E081E090E002C0880F991F4A95E2F78D
S11305A0822393232B81222F30E002C095958795D7
S11305B02A95E2F70197A9F488E390E028E330E074
S11305C0F9012081622F2B81422F50E021E030E09D
S11305D002C0220F331F4A95E2F7262BFC01208329
S11305E063C181E0898360C184E390E0FC01808180
S11305F0282F30E08B81482F50E081E090E002C04A
S1130600880F991F4A95E2F7822393232B81222F87
S113061030E002C0959587952A95E2F70197A9F4F1
S113062085E390E025E330E0F9012081622F2B81FE
S1130630422F50E021E030E002C0220F331F4A95E0
S1130640E2F7262BFC0120832FC181E089832CC192
S113065081E390E0FC018081282F30E08B81482FDA
S113066050E081E090E002C0880F991F4A95E2F7BC
S1130670822393232B81222F30E002C09595879506
S11306802A95E2F70197A9F482E390E022E330E0AF
S1130690F9012081622F2B81422F50E021E030E0CC
S11306A002C0220F331F4A95E2F7262BFC01208358
S11306B0FBC081E08983F8C081E089830000F4C035
S11306C08C81882309F0EDC08A81882F90E08230E4
S11306D0910509F443C0833091051CF4019749F056
S11306E0DCC08330910509F46EC0049709F4A0C0FE
S11306F0D4C08AE390E0FC018081282F30E08B8114
S1130700482F50E081E090E002C0880F991F4A957D
S1130710E2F7822393232B81222F30E002C09595A8
S113072087952A95E2F70197B1F48BE390E02BE3E8
S113073030E0F9012081622F2B81422F50E021E02B
S113074030E002C0220F331F4A95E2F7209526239A
S1130750FC012083A9C081E08983A6C087E390E0DF
S1130760FC018081282F30E08B81482F50E081E00C
S113077090E002C0880F991F4A95E2F782239323E1
S11307802B81222F30E002C0959587952A95E2F7B8
S11307900197B1F488E390E028E330E0F901208187
S11307A0622F2B81422F50E021E030E002C0220F63
S11307B0331F4A95E2F720952623FC01208374C059
S11307C081E0898371C084E390E0FC018081282F5B
S11307D030E08B81482F50E081E090E002C0880F28
S11307E0991F4A95E2F7822393232B81222F30E02D
S11307F002C0959587952A95E2F70197B1F485E3B0
S113080090E025E330E0F9012081622F2B81422F13
S113081050E021E030E002C0220F331F4A95E2F796
S113082020952623FC0120833FC081E089833CC0BE
S113083081E390E0FC018081282F30E08B81482FF8
S113084050E081E090E002C0880F991F4A95E2F7DA
S1130850822393232B81222F30E002C09595879524
S11308602A95E2F70197B1F482E390E022E330E0C5
S1130870F9012081622F2B81422F50E021E030E0EA
S113088002C0220F331F4A95E2F720952623FC016C
S113089020830AC081E0898307C081E08983000046
S11308A003C081E0898303C002C081E08983898118
S11308B00F900F900F900F90DF91CF910895CF93E9
S11308C0DF9300D01F92CDB7DEB78A836B8381E0BC
S11308D089838A81853008F088C08B81883008F04C
S11308E084C08A81882F90E08230910549F1833059
S11308F091051CF4019741F07AC083309105E1F130
S1130900049709F455C073C089E390E0FC01808129
S1130910282F30E08B81482F50E081E090E002C026
S1130920880F991F4A95E2F7822393232B81222F64
S113093030E002C0959587952A95E2F7898354C0E3
S113094086E390E0FC018081282F30E08B81482FE2
S113095050E081E090E002C0880F991F4A95E2F7C9
S1130960822393232B81222F30E002C09595879513
S11309702A95E2F7898338C083E390E0FC01808103
S1130980282F30E08B81482F50E081E090E002C0B6
S1130990880F991F4A95E2F7822393232B81222FF4
S11309A030E002C0959587952A95E2F789831CC0AB
S11309B080E390E0FC018081282F30E08B81482F78
S11309C050E081E090E002C0880F991F4A95E2F759
S11309D0822393232B81222F30E002C095958795A3
S11309E02A95E2F78983000002C081E08983898126
S11309F00F900F900F90DF91CF910895CF93DF93D5
S1130A0000D01F92CDB7DEB78A836B8319828A81A7
S1130A10853008F0EDC08B81883008F0E9C08A8108
S1130A20882F90E08230910509F442C0833091050B
S1130A301CF4019749F0D8C08330910509F46CC0C7
S1130A40049709F49DC0D0C08AE390E0FC01808142
S1130A50282F30E08B81482F50E081E090E002C0E5
S1130A60880F991F4A95E2F7822393232B81222F23
S1130A7030E002C0959587952A95E2F70197A9F48D
S1130A808BE390E02BE330E0F9012081622F2B818E
S1130A90422F50E021E030E002C0220F331F4A957C
S1130AA0E2F72627FC012083A2C081E089839FC04E
S1130AB087E390E0FC018081282F30E08B81482F70
S1130AC050E081E090E002C0880F991F4A95E2F758
S1130AD0822393232B81222F30E002C095958795A2
S1130AE02A95E2F70197A9F488E390E028E330E03F
S1130AF0F9012081622F2B81422F50E021E030E068
S1130B0002C0220F331F4A95E2F72627FC012083F7
S1130B106EC081E089836BC084E390E0FC01808136
S1130B20282F30E08B81482F50E081E090E002C014
S1130B30880F991F4A95E2F7822393232B81222F52
S1130B4030E002C0959587952A95E2F70197A9F4BC
S1130B5085E390E025E330E0F9012081622F2B81C9
S1130B60422F50E021E030E002C0220F331F4A95AB
S1130B70E2F72627FC0120833AC081E0898337C04D
S1130B8081E390E0FC018081282F30E08B81482FA5
S1130B9050E081E090E002C0880F991F4A95E2F787
S1130BA0822393232B81222F30E002C095958795D1
S1130BB02A95E2F70197A9F482E390E022E330E07A
S1130BC0F9012081622F2B81422F50E021E030E097
S1130BD002C0220F331F4A95E2F72627FC01208327
S1130BE006C081E0898303C081E08983000002C0DC
S1130BF081E0898389810F900F900F90DF91CF91CD
S1130C000895CF93DF9300D000D01F92CDB7DEB705
S1130C109A8389836B835D834C8389819A81FC01E8
S1130C20228189819A81FC01818141E0622F0E94A5
S1130C30B50089819A81FC01228189819A81FC0114
S1130C4081814B81622F0E94610289819A812C816A
S1130C503D81FC013483238300000F900F900F909B
S1130C600F900F90DF91CF910895CF93DF93CDB77D
S1130C70DEB7809176008823A9F461E080E690E0F5
S1130C800E94A80647E556E060E080E790E00E94F5
S1130C90010667E576E080E690E00E94490081E085
S1130CA08093760080E690E00E94F206FBCFCF931B
S1130CB0DF9300D0CDB7DEB79A8389838091770024
S1130CC08F5F8093770080917700813049F4909111
S1130CD0720080917100692F0E94FE0410927700C7
S1130CE000000F900F90DF91CF910895CF93DF9381
S1130CF000D000D0CDB7DEB79A8389837C836B8321
S1130D0089819A81892BE1F08B819C81892BC1F0A7
S1130D1089819A81FC01278589819A81FC018685D4
S1130D20622F0E945F04282F89819A81FC01258704
S1130D3089819A81FC0125858B819C81FC0120831A
S1130D4000000F900F900F900F90DF91CF910895B6
S1130D50CF93DF9300D01F92CDB7DEB79A838983F8
S1130D606B8389819A81FC01278589819A81FC01A1
S1130D70868540E0622F0E94B5008B81882359F05C
S1130D8089819A81FC01278589819A81FC01868564
S1130D90622F0E94B70189819A81FC01278589818C
S1130DA09A81FC018685622F0E945F04282F898125
S1130DB09A81FC01258789819A81FC012585898195
S1130DC09A81FC01218389819A81FC01258589818D
S1130DD09A81FC01208300000F900F900F90DF9107
S1130DE0CF910895CF93DF9300D01F92CDB7DEB794
S1130DF09B838A838A819B819E012F5F3F4FB90128
S1130E000E94760629818A819B81FC0121838A8143
S1130E109B810E947B0000000F900F900F90DF9148
S10B0E20CF910895F894FFCF6F
S1130E2800000000000000000000000000000101B4
S1090E38000100000000AF
S9030000FC
