:100000000C942A000C943C000C943C000C943C0092
:100010000C943C000C943C000C943C000C943C0070
:100020000C943C000C943C000C943C000C943C0060
:100030000C940B050C9481020C94B4020C94E7020E
:100040000C943C000C943C000C943C000C943C0040
:100050000C943C0011241FBECFE5D8E0DEBFCDBF1D
:1000600010E0A0E6B0E001C01D92AA36B107E1F7AA
:100070000E94160D0C941F0D0C940000DF93CF937B
:1000800000D0CDB7DEB78A838FEF89838A81823033
:1000900018F081E0898367C0ABE2B0E0EBE2F0E00A
:1000A000808182608C93ABE2B0E0EBE2F0E0808193
:1000B0008E7F8C93AAE2B0E0EAE2F0E080818B7F51
:1000C0008C93A0E4B0E0E0E4F0E0808180688C9361
:1000D000A0E4B0E0E0E4F0E0808184608C93A0E4F0
:1000E000B0E0E0E4F0E0808182608C93A0E4B0E0D6
:1000F000E0E4F0E08081877F8C93A0E4B0E0E0E46E
:10010000F0E080818F7D8C93A0E4B0E0E0E4F0E04B
:1001100080818F7E8C93A0E4B0E0E0E4F0E0808109
:100120008F7B8C93A0E4B0E0E0E4F0E080818F77F7
:100130008C93A0E4B0E0E0E4F0E08081807F8C93D9
:10014000E9E2F0E087E68083AAE2B0E0EAE2F0E0EC
:10015000808180618C93AAE2B0E0EAE2F0E08081E5
:1001600088608C93198289810F900F90CF91DF91D5
:100170000895DF93CF9300D0CDB7DEB78FEF8A839A
:10018000ECE2F0E0808189831A828A810F900F90DF
:10019000CF91DF910895DF93CF9300D00F92CDB729
:1001A000DEB78A836B838FEF8983EBE2F0E0808197
:1001B000882F90E08072907095958795959587959A
:1001C000959587959595879595958795009731F0A5
:1001D000ECE2F0E08B818083198202C083E08983A6
:1001E00089810F900F900F90CF91DF910895DF9349
:1001F000CF9300D000D0CDB7DEB78A837C836B83EA
:100200008FEF8983EBE2F0E08081881F8827881FC9
:10021000882F90E090708130910541F4ECE2F0E09D
:100220008081EB81FC818083198202C084E0898314
:1002300089810F900F900F900F90CF91DF910895CB
:10024000DF93CF9300D000D00F92CDB7DEB78B8372
:100250007D836C838FEF8A831982EC81FD8180819D
:10026000882381F41A828B816DE00E94CB00882361
:10027000D1F78A810F900F900F900F900F90CF9130
:10028000DF910895EC81FD8190818B81692F0E941F
:10029000CB008823B9F789818F5F89838C819D8109
:1002A00001969D838C83D9CFDF93CF9300D000D06C
:1002B0000F92CDB7DEB78B837D836C838FEF8A83FC
:1002C00019822C813D818B81B9010E94F70088231E
:1002D000C1F7EC81FD8180818D3029F0EC81FD81B9
:1002E00080818A3069F4EC81FD8110821A828A81D2
:1002F0000F900F900F900F900F90CF91DF91089576
:100300008C819D8101969D838C8389818F5F8983F8
:10031000D8CFDF93CF9300D000D00F92CDB7DEB708
:100320008A836B838FEF8983AFE5B0E0EFE5F0E080
:10033000808180688C938B81833088F58B81282F16
:1003400030E03D832C838C819D818130910591F03B
:100350002C813D8122303105B1F08C819D81009747
:10036000D9F4AAE2B0E0EAE2F0E0808180688C9300
:10037000198217C0AAE2B0E0EAE2F0E08081806270
:100380008C9319820EC0AAE2B0E0EAE2F0E080812C
:1003900080648C93198205C089E0898302C089E05A
:1003A000898389810F900F900F900F900F90CF91BC
:1003B000DF910895DF93CF9300D000D00F92CDB797
:1003C000DEB78A836B838FEF89838B81833088F5D7
:1003D0008B81282F30E03D832C838C819D8181305F
:1003E000910591F02C813D8122303105B1F08C8155
:1003F0009D810097D9F4AAE2B0E0EAE2F0E08081C2
:100400008F778C93198217C0AAE2B0E0EAE2F0E09D
:1004100080818F7D8C9319820EC0AAE2B0E0EAE25F
:10042000F0E080818F7B8C93198205C088E08983FE
:1004300002C088E0898389810F900F900F900F9000
:100440000F90CF91DF910895DF93CF9300D000D02C
:100450000F92CDB7DEB78A836B835D834C8319829D
:100460008C819D81009731F08C819D8190936100FA
:100470008093600089810F900F900F900F900F90E4
:10048000CF91DF910895DF93CF9300D000D00F92EA
:10049000CDB7DEB78A836B835D834C8319828C81F1
:1004A0009D81009731F08C819D81909363008093B2
:1004B000620089810F900F900F900F900F90CF9155
:1004C000DF910895DF93CF9300D000D00F92CDB786
:1004D000DEB78A836B835D834C8319828C819D8117
:1004E000009731F08C819D8190936500809364002A
:1004F00089810F900F900F900F900F90CF91DF9107
:1005000008951F920F920FB60F9211242F933F93CD
:100510004F935F936F937F938F939F93AF93BF930B
:10052000EF93FF93DF93CF93CDB7DEB78091600059
:1005300090916100009729F0E0916000F0916100D6
:100540000995CF91DF91FF91EF91BF91AF919F916D
:100550008F917F916F915F914F913F912F910F906C
:100560000FBE0F901F9018951F920F920FB60F920B
:1005700011242F933F934F935F936F937F938F93A8
:100580009F93AF93BF93EF93FF93DF93CF93CDB739
:10059000DEB78091620090916300009729F0E091AE
:1005A0006200F09163000995CF91DF91FF91EF9187
:1005B000BF91AF919F918F917F916F915F914F917B
:1005C0003F912F910F900FBE0F901F9018951F9283
:1005D0000F920FB60F9211242F933F934F935F9377
:1005E0006F937F938F939F93AF93BF93EF93FF93FB
:1005F000DF93CF93CDB7DEB7809164009091650013
:10060000009729F0E0916400F09165000995CF9181
:10061000DF91FF91EF91BF91AF919F918F917F916A
:100620006F915F914F913F912F910F900FBE0F905F
:100630001F901895DF93CF9300D00F92CDB7DEB700
:100640008B838FEF8A8319828B81823008F06CC094
:10065000EDE2F0E01082ADE2B0E0EDE2F0E08081AA
:1006600080618C9382E064E041E00E94940582E026
:1006700064E041E00E941D0882E067E041E00E94E2
:10068000940582E065E041E00E949405ADE2B0E0AF
:10069000EDE2F0E0808184608C93ADE2B0E0EDE2C9
:1006A000F0E08081877F8C93ADE2B0E0EDE2F0E096
:1006B00080818F7D8C93AEE2B0E0EEE2F0E080814D
:1006C00081608C93ADE2B0E0EDE2F0E08081826089
:1006D0008C93ADE2B0E0EDE2F0E080818E7F8C9310
:1006E000EEE2F0E08081882F90E080749070082E18
:1006F000892F000C881F990B000C881F991F898374
:10070000EEE2F0E08081881F8827881F8983EFE26E
:10071000F0E080818983ADE2B0E0EDE2F0E080813D
:1007200080648C931A8202C081E08A838A810F9050
:100730000F900F90CF91DF910895DF93CF9300D06A
:1007400000D00F92CDB7DEB78B836C834D838FEFD4
:100750008A8319828D81823018F582E064E040E05E
:100760000E941D08EFE2F0E08C818083EEE2F0E071
:100770008081882F90E080749070082E892F000C63
:10078000881F990B000C881F991F009739F084E08F
:100790008A83EFE2F0E08081898304C01A8202C07C
:1007A00083E08A838A810F900F900F900F900F90B3
:1007B000CF91DF910895DF93CF9300D000D00F92B7
:1007C000CDB7DEB78A837C836B834D838FEF8983BC
:1007D0008D818230D8F4EEE2F0E08081881F882796
:1007E000881F882F90E09070009769F0EFE2F0E0AA
:1007F0008081EB81FC81808382E064E041E00E94A3
:100800001D08198205C085E0898302C081E08983C3
:1008100089810F900F900F900F900F90CF91DF91E3
:100820000895DF93CF9300D000D000D0CDB7DEB7CE
:100830008A836B835D834C832E838FEF898381E072
:100840006B8141E00E949D032C813D8181E0B901D3
:1008500041E00E94DB038823B9F71982898126963B
:100860000FB6F894DEBF0FBECDBFCF91DF910895D4
:10087000DF93CF93CDB7DEB727970FB6F894DEBFDF
:100880000FBECDBF8C837E836D834F838FEF8A83B2
:1008900019821B82ED81FE8180818823B1F41A8246
:1008A0009E012D5F3F4F8C8160E0A9012F810E9446
:1008B00011048823A9F78A8127960FB6F894DEBF22
:1008C0000FBECDBFCF91DF910895ED81FE81908164
:1008D0009E012D5F3F4F8C81692FA9012F810E94BE
:1008E0001104882391F789818F5F89838D819E818F
:1008F00001969E838D83CECFDF93CF93CDB7DEB7A6
:1009000029970FB6F894DEBF0FBECDBF8E837887D0
:100910006F8349878FEF8D838F8198859C838B832D
:100920001A8219822F8138858E816981A9012985D2
:100930000E9411048823B1F7EF81F8858081882314
:1009400091F42F8138858B819C812817390751F3C9
:100950001D828D8129960FB6F894DEBF0FBECDBFE4
:10096000CF91DF9108958F819885019698878F8325
:100970008A818F5F8A83D6CFDF93CF9300D0CDB7A4
:10098000DEB78A838FEF8983AFE5B0E0EFE5F0E073
:10099000808180688C93ADE2B0E0EDE2F0E0808190
:1009A00080688C93198289810F900F90CF91DF918D
:1009B0000895DF93CF9300D0CDB7DEB78A838FEF52
:1009C0008983ADE2B0E0EDE2F0E080818F778C9337
:1009D000198289810F900F90CF91DF910895DF9355
:1009E000CF9300D000D0CDB7DEB78A837C836B83F2
:1009F00019828B819C81009731F08B819C8190932F
:100A000067008093660089810F900F900F900F9080
:100A1000CF91DF9108951F920F920FB60F9211247C
:100A20002F933F934F935F936F937F938F939F93F6
:100A3000AF93BF93EF93FF93DF93CF93CDB7DEB721
:100A40008091660090916700009729F0E091660020
:100A5000F09167000995CF91DF91FF91EF91BF91E0
:100A6000AF919F918F917F916F915F914F913F9146
:100A70002F910F900FBE0F901F901895DF93CF937B
:100A800000D000D00F92CDB7DEB78A836B83198276
:100A90008A81853008F03DC08B81882319F08B81D5
:100AA0008F3FB9F58A81282F30E03D832C838C81DC
:100AB0009D8182309105D9F02C813D812330310513
:100AC00034F48C819D818130910561F01FC02C81AF
:100AD0003D812330310581F08C819D8184309105E9
:100AE00081F014C0EAE3F0E08B81808314C0E7E377
:100AF000F0E08B8180830FC0E4E3F0E08B818083A2
:100B00000AC0E1E3F0E08B81808305C081E0898346
:100B100002C081E0898389810F900F900F900F9020
:100B20000F90CF91DF910895DF93CF93CDB7DEB7CC
:100B300028970FB6F894DEBF0FBECDBF8A836B83B4
:100B40004C8319828A81853008F0FAC08B81883005
:100B500008F0F6C08C81813009F073C08A81282F9B
:100B600030E038872F838F8198858230910551F14D
:100B70002F8138852330310534F48F819885813079
:100B8000910561F05BC02F8138852330310571F10B
:100B90008F81988584309105E9F150C0AAE3B0E0D7
:100BA000EAE3F0E08081482F8B81282F30E081E05C
:100BB00090E0022E02C0880F991F0A94E2F7842B5E
:100BC0008C93C0C0A7E3B0E0E7E3F0E08081482F5A
:100BD0008B81282F30E081E090E0022E02C0880F48
:100BE000991F0A94E2F7842B8C93ACC0A4E3B0E085
:100BF000E4E3F0E08081482F8B81282F30E081E012
:100C000090E0022E02C0880F991F0A94E2F7842B0D
:100C10008C9398C0A1E3B0E0E1E3F0E08081482F3D
:100C20008B81282F30E081E090E0022E02C0880FF7
:100C3000991F0A94E2F7842B8C9384C081E0898306
:100C400081C08C81882309F078C08A81282F30E008
:100C50003E832D838D819E818230910561F12D81AE
:100C60003E812330310534F48D819E8181309105A0
:100C700069F060C02D813E812330310589F18D817D
:100C80009E818430910509F440C054C0AAE3B0E0CD
:100C9000EAE3F0E08081482F8B81282F30E081E06B
:100CA00090E0022E02C0880F991F0A94E2F7809507
:100CB00084238C9347C0A7E3B0E0E7E3F0E08081B2
:100CC000482F8B81282F30E081E090E0022E02C077
:100CD000880F991F0A94E2F7809584238C9332C081
:100CE000A4E3B0E0E4E3F0E08081482F8B81282F7B
:100CF00030E081E090E0022E02C0880F991F0A9434
:100D0000E2F7809584238C931DC0A1E3B0E0E1E37A
:100D1000F0E08081482F8B81282F30E081E090E047
:100D2000022E02C0880F991F0A94E2F7809584234F
:100D30008C9308C081E0898305C081E0898302C06B
:100D400081E08983898128960FB6F894DEBF0FBEB3
:100D5000CDBFCF91DF910895DF93CF9300D000D026
:100D60000F92CDB7DEB78A836B8319828A81853073
:100D700008F099C08B81883008F095C08A81282FAF
:100D800030E03D832C838C819D8182309105A1F1DF
:100D90002C813D812330310534F48C819D8181305B
:100DA000910571F07DC02C813D812330310509F41E
:100DB0003FC08C819D818430910509F455C070C07D
:100DC000EAE3F0E080818823A1F4ABE3B0E0EBE359
:100DD000F0E08081482F8B81282F30E081E090E087
:100DE000022E02C0880F991F0A94E2F7842B8C937D
:100DF0005CC081E0898359C0E7E3F0E0808188230B
:100E0000A1F4A8E3B0E0E8E3F0E08081482F8B8113
:100E1000282F30E081E090E0022E02C0880F991F59
:100E20000A94E2F7842B8C9340C081E089833DC013
:100E3000E4E3F0E080818823A1F4A5E3B0E0E5E3FA
:100E4000F0E08081482F8B81282F30E081E090E016
:100E5000022E02C0880F991F0A94E2F7842B8C930C
:100E600024C081E0898321C0E1E3F0E08081882310
:100E7000A1F4A2E3B0E0E2E3F0E08081482F8B81AF
:100E8000282F30E081E090E0022E02C0880F991FE9
:100E90000A94E2F7842B8C9308C081E0898305C013
:100EA00081E0898302C081E0898389810F900F905E
:100EB0000F900F900F90CF91DF910895DF93CF9314
:100EC00000D000D00F92CDB7DEB78A836B83198232
:100ED0008A818530B8F58A81282F30E03D832C83C4
:100EE0008C819D8182309105D9F02C813D81233008
:100EF000310534F48C819D818130910561F01FC0F2
:100F00002C813D812330310581F08C819D8184309D
:100F1000910581F014C0EBE3F0E08B81808314C075
:100F2000E8E3F0E08B8180830FC0E5E3F0E08B81A4
:100F300080830AC0E2E3F0E08B81808305C081E01A
:100F4000898302C081E0898389810F900F900F907F
:100F50000F900F90CF91DF910895DF93CF93CDB78E
:100F6000DEB729970FB6F894DEBF0FBECDBF8A83D8
:100F70006B8319828A81853008F053C08A81282FBB
:100F800030E039872887888599858230910511F16D
:100F9000288539852330310534F488859985813059
:100FA000910561F03BC02885398523303105F1F08A
:100FB000888599858430910529F130C0EBE3F0E014
:100FC0009081EBE3F0E08B81882F90E08095909505
:100FD000808329C0E8E3F0E02081E8E3F0E08B8142
:100FE000882F90E08095909580831DC0E5E3F0E028
:100FF0003081E5E3F0E08B81882F90E0809590953B
:10100000808311C0E2E3F0E08081E2E3F0E08B81D5
:10101000882F90E080959095808305C081E089833A
:1010200002C081E08983898129960FB6F894DEBFDA
:101030000FBECDBFCF91DF910895DF93CF93CDB792
:10104000DEB728970FB6F894DEBF0FBECDBF8A83F8
:101050006B834C8319828A81853008F00FC28B81A3
:10106000883008F00BC28C81813009F0FEC08A8183
:10107000282F30E038872F834F8158854230510523
:1010800009F44EC08F8198858330910534F42F8107
:1010900038852130310571F0E5C04F8158854330E6
:1010A000510509F473C08F8198858430910509F446
:1010B000A3C0D8C0EAE3F0E08081482F50E08B81E4
:1010C000282F30E081E090E002C0880F991F2A9518
:1010D000E2F79A01282339238B81882F90E0A90118
:1010E00002C0559547958A95E2F7CA01813091056E
:1010F000A1F4ABE3B0E0EBE3F0E08081482F8B811B
:10110000282F30E081E090E0022E02C0880F991F66
:101110000A94E2F7842B8C93B3C181E08983B0C138
:10112000E7E3F0E08081482F50E08B81282F30E00A
:1011300081E090E002C0880F991F2A95E2F79A019A
:10114000282339238B81882F90E0A90102C055956F
:1011500047958A95E2F7CA0181309105A1F4A8E389
:10116000B0E0E8E3F0E08081482F8B81282F30E069
:1011700081E090E0022E02C0880F991F0A94E2F7E6
:10118000842B8C937DC181E089837AC1E4E3F0E014
:101190008081482F50E08B81282F30E081E090E063
:1011A00002C0880F991F2A95E2F79A012823392354
:1011B0008B81882F90E0A90102C0559547958A95AB
:1011C000E2F7CA0181309105A1F4A5E3B0E0E5E3BF
:1011D000F0E08081482F8B81282F30E081E090E083
:1011E000022E02C0880F991F0A94E2F7842B8C9379
:1011F00047C181E0898344C1E1E3F0E08081482F69
:1012000050E08B81282F30E081E090E002C0880F11
:10121000991F2A95E2F79A01282339238B81882F79
:1012200090E0A90102C0559547958A95E2F7CA0159
:1012300081309105A1F4A2E3B0E0E2E3F0E0808127
:10124000482F8B81282F30E081E090E0022E02C0F1
:10125000880F991F0A94E2F7842B8C9311C181E0C7
:1012600089830EC181E089830BC18C81882309F0B9
:1012700002C18A81282F30E03E832D834D815E811B
:101280004230510509F44FC08D819E818330910514
:1012900034F42D813E812130310571F0E9C04D815A
:1012A0005E814330510509F475C08D819E81843083
:1012B000910509F4A6C0DCC0EAE3F0E08081482F84
:1012C00050E08B81282F30E081E090E002C0880F51
:1012D000991F2A95E2F79A01282339238B81882FB9
:1012E00090E0A90102C0559547958A95E2F7CA0199
:1012F00081309105A9F4ABE3B0E0EBE3F0E080814D
:10130000482F8B81282F30E081E090E0022E02C030
:10131000880F991F0A94E2F7809584238C93B0C0BC
:1013200081E08983ADC0E7E3F0E08081482F50E0A1
:101330008B81282F30E081E090E002C0880F991F58
:101340002A95E2F79A01282339238B81882F90E090
:10135000A90102C0559547958A95E2F7CA018130E7
:101360009105A9F4A8E3B0E0E8E3F0E08081482F1C
:101370008B81282F30E081E090E0022E02C0880FA0
:10138000991F0A94E2F7809584238C9379C081E0B9
:10139000898376C0E4E3F0E08081482F50E08B81C0
:1013A000282F30E081E090E002C0880F991F2A9535
:1013B000E2F79A01282339238B81882F90E0A90135
:1013C00002C0559547958A95E2F7CA01813091058B
:1013D000A9F4A5E3B0E0E5E3F0E08081482F8B813C
:1013E000282F30E081E090E0022E02C0880F991F84
:1013F0000A94E2F7809584238C9342C081E089832C
:101400003FC0E1E3F0E08081482F50E08B81282F3E
:1014100030E081E090E002C0880F991F2A95E2F742
:101420009A01282339238B81882F90E0A90102C0DB
:10143000559547958A95E2F7CA0181309105A9F43F
:10144000A2E3B0E0E2E3F0E08081482F8B81282F17
:1014500030E081E090E0022E02C0880F991F0A94CC
:10146000E2F7809584238C930BC081E0898308C0C8
:1014700081E0898305C081E0898302C081E089839E
:10148000898128960FB6F894DEBF0FBECDBFCF91ED
:10149000DF910895DF93CF9300D000D0CDB7DEB7B2
:1014A0008A8381E089838A818530B8F58A81282FF3
:1014B00030E03C832B838B819C8182309105D9F075
:1014C0002B813C812330310534F48B819C81813028
:1014D000910561F01FC02B813C812330310581F0E3
:1014E0008B819C818430910581F014C0E9E3F0E0A8
:1014F0008081898314C0E6E3F0E0808189830FC096
:10150000E3E3F0E0808189830AC0E0E3F0E08081DA
:10151000898305C081E0898302C081E08983898154
:101520000F900F900F900F90CF91DF910895DF9360
:10153000CF9300D000D00F92CDB7DEB78A836B83F4
:1015400081E089838A81853008F09EC08B81883054
:1015500008F09AC08A81282F30E03D832C834C818B
:101560005D8142305105B1F18C819D8183309105BF
:1015700034F42C813D812130310571F087C04C81DC
:101580005D814330510509F443C08C819D818430D5
:10159000910509F45BC07AC0E9E3F0E08081482F4F
:1015A00050E08B81282F30E081E090E002C0880F6E
:1015B000991F2A95E2F79A01282339238B81882FD6
:1015C00090E0A90102C0559547958A95E2F7CA01B6
:1015D00089835CC0E6E3F0E08081482F50E08B8196
:1015E000282F30E081E090E002C0880F991F2A95F3
:1015F000E2F79A01282339238B81882F90E0A901F3
:1016000002C0559547958A95E2F7CA0189833EC085
:10161000E3E3F0E08081482F50E08B81282F30E019
:1016200081E090E002C0880F991F2A95E2F79A01A5
:10163000282339238B81882F90E0A90102C055957A
:1016400047958A95E2F7CA01898320C0E0E3F0E07C
:101650008081482F50E08B81282F30E081E090E09E
:1016600002C0880F991F2A95E2F79A01282339238F
:101670008B81882F90E0A90102C0559547958A95E6
:10168000E2F7CA01898302C081E0898389810F90D2
:101690000F900F900F900F90CF91DF910895DF93EF
:1016A000CF9300D000D00F92CDB7DEB78A836B8383
:1016B00019828A81853008F067C08A81282F30E03E
:1016C0003D832C838C819D818230910539F12C8161
:1016D0003D812330310534F48C819D818130910529
:1016E00061F04FC02C813D812330310541F18C8167
:1016F0009D8184309105A1F144C0EAE3F0E080814E
:101700008F3F49F4ABE3B0E0EBE3F0E090818B81F5
:1017100089278C933BC081E0898338C0E7E3F0E000
:1017200080818F3F49F4A8E3B0E0E8E3F0E09081E6
:101730008B8189278C932AC081E0898327C0E4E3C9
:10174000F0E080818F3F49F4A5E3B0E0E5E3F0E00D
:1017500090818B8189278C9319C081E0898316C081
:10176000E1E3F0E080818F3F49F4A2E3B0E0E2E3FF
:10177000F0E090818B8189278C9308C081E0898378
:1017800005C081E0898302C081E0898389810F904F
:101790000F900F900F900F90CF91DF910895DF93EE
:1017A000CF9300D000D00F92CDB7DEB78A836B8382
:1017B00019828A81853008F002C18B81883008F057
:1017C000FEC08A81282F30E03D832C834C815D81CF
:1017D0004230510509F44EC08C819D8183309105C2
:1017E00034F42C813D812130310571F0E5C04C810C
:1017F0005D814330510509F473C08C819D81843033
:10180000910509F4A3C0D8C0EAE3F0E08081482F35
:1018100050E08B81282F30E081E090E002C0880FFB
:10182000991F2A95E2F79A01282339238B81882F63
:1018300090E0A90102C0559547958A95E2F7CA0143
:1018400081309105A1F4ABE3B0E0EBE3F0E08081FF
:10185000482F8B81282F30E081E090E0022E02C0DB
:10186000880F991F0A94E2F784278C93AAC081E01D
:101870008983A7C0E7E3F0E08081482F50E08B81A7
:10188000282F30E081E090E002C0880F991F2A9550
:10189000E2F79A01282339238B81882F90E0A90150
:1018A00002C0559547958A95E2F7CA0181309105A6
:1018B000A1F4A8E3B0E0E8E3F0E08081482F8B8159
:1018C000282F30E081E090E0022E02C0880F991F9F
:1018D0000A94E2F784278C9374C081E0898371C0F5
:1018E000E4E3F0E08081482F50E08B81282F30E046
:1018F00081E090E002C0880F991F2A95E2F79A01D3
:10190000282339238B81882F90E0A90102C05595A7
:1019100047958A95E2F7CA0181309105A1F4A5E3C4
:10192000B0E0E5E3F0E08081482F8B81282F30E0A4
:1019300081E090E0022E02C0880F991F0A94E2F71E
:1019400084278C933EC081E089833BC0E1E3F0E0D3
:101950008081482F50E08B81282F30E081E090E09B
:1019600002C0880F991F2A95E2F79A01282339238C
:101970008B81882F90E0A90102C0559547958A95E3
:10198000E2F7CA0181309105A1F4A2E3B0E0E2E3FD
:10199000F0E08081482F8B81282F30E081E090E0BB
:1019A000022E02C0880F991F0A94E2F784278C93B5
:1019B00008C081E0898305C081E0898302C081E09D
:1019C000898389810F900F900F900F900F90CF9186
:1019D000DF910895DF93CF93CDB7DEB781E00E940A
:1019E0003E0081E00E941A03CF91DF910895DF93BA
:1019F000CF93CDB7DEB728E630E081E0B9010E9491
:101A0000F7008823C1F79091680081E0692F41E0D9
:101A10000E949D0329E630E081E0B90141E00E9487
:101A2000DB038823B9F7CF91DF910895DF93CF933C
:101A3000CDB7DEB70E94EA0C0E94F70CFDCFF894F8
:021A4000FFCFD6
:00000001FF
