:100000000C942A000C9447000C9447000C94470071
:100010000C9447000C9447000C9447000C94470044
:100020000C9447000C9447000C9447000C94470034
:100030000C9447000C9447000C9447000C94470024
:100040000C9447000C9447000C9447000C94470014
:100050000C94470011241FBECFE5D8E0DEBFCDBF12
:1000600010E0A0E6B0E0E4EAF7E002C005900D92EF
:10007000A236B107D9F720E0A2E6B0E001C01D9298
:10008000AC36B207E1F70E94A6030C94D0030C949F
:100090000000CF92DF92EF92FF92009709F48CC09C
:1000A0003091660031110AC0FC01418352836383A1
:1000B0007483208381E0809366007EC0309160006D
:1000C000313009F445C068F03F3F09F075C0FC01CC
:1000D0008081813019F4809360006EC010926000BE
:1000E0006BC0409162005091630060916400709118
:1000F00065004F5F5F4F6F4F7F4F4093620050939B
:10010000630060936400709365002130C1F4FC01CA
:10011000C180D280E380F4804C155D056E057F05BB
:1001200009F04AC01082109262001092630010928F
:1001300064001092650081E0809360003DC01092E1
:10014000620010926300109264001092650034C047
:10015000409162005091630060916400709165006D
:100160004F5F5F4F6F4F7F4F40936200509363002C
:100170006093640070936500211116C0FC01C1807A
:10018000D280E380F4804C155D056E057F05A1F4F7
:10019000208310926200109263001092640010920B
:1001A00065001092600008C0109262001092630017
:1001B0001092640010926500FF90EF90DF90CF9056
:1001C0000895CF93DF93009751F06115710539F0D1
:1001D000EB01FC01678186810E943F038883DF91E8
:1001E000CF910895FF920F931F93CF93DF931F92A8
:1001F000CDB7DEB78C01F22EFC0166834783BE01CA
:100200006F5F7F4F0E94E10029814AE050E060E08B
:1002100070E087E690E00E94490085E0E7E6F0E0C4
:10022000D80101900D928A95E1F740E0F8016781CD
:1002300086810E944F01FF2029F0F80167818681A5
:100240000E94DD01F801678186810E943F03F80169
:1002500085830F90DF91CF911F910F91FF900895AB
:100260000F931F93CF93DF931F92CDB7DEB78C010F
:10027000BE016F5F7F4F0E94E10029814AE050E09C
:1002800060E070E0C8010E944900F801808180931D
:1002900061000F90DF91CF911F910F9108958530EC
:1002A00008F081C0683008F080C04130D9F5823054
:1002B000A9F018F4813031F07AC08330D9F084305D
:1002C00029F175C02AB381E090E002C0880F991F20
:1002D0006A95E2F7822B8ABB80E0089527B381E01C
:1002E00090E002C0880F991F6A95E2F7822B87BBC6
:1002F00080E0089524B381E090E002C0880F991F48
:100300006A95E2F7822B84BB80E0089521B381E0F7
:1003100090E002C0880F991F6A95E2F7822B81BB9B
:1003200080E00895411145C08230B1F018F4813069
:1003300031F041C08330E9F0843041F13CC02AB350
:1003400081E090E002C0880F991F6A95E2F78095DE
:1003500082238ABB80E0089527B381E090E002C049
:10036000880F991F6A95E2F78095822387BB80E00A
:10037000089524B381E090E002C0880F991F6A9528
:10038000E2F78095822384BB80E0089521B381E069
:1003900090E002C0880F991F6A95E2F7809582234A
:1003A00081BB80E0089581E0089581E0089581E0B7
:1003B000089581E0089581E00895853008F04AC0ED
:1003C000683008F049C08230C1F018F4813031F053
:1003D00045C0833009F1843071F140C08AB3811186
:1003E0003FC02BB381E090E002C0880F991F6A954F
:1003F000E2F7822B8BBB80E0089587B3811132C076
:1004000028B381E090E002C0880F991F6A95E2F757
:10041000822B88BB80E0089584B3811125C025B369
:1004200081E090E002C0880F991F6A95E2F7822B65
:1004300085BB80E0089581B3811118C022B381E0AB
:1004400090E002C0880F991F6A95E2F7822B82BB69
:1004500080E0089581E0089581E0089581E00895A5
:1004600081E0089581E0089581E0089581E0089594
:10047000853008F0EAC0683008F0E9C0413009F082
:1004800070C0823019F118F4813039F0E2C0833045
:10049000B1F1843009F44CC0DCC08AB321E030E013
:1004A000062E02C0220F331F0A94E2F790E0822347
:1004B000932302C0959587956A95E2F7019709F015
:1004C000CAC08BB3282B2BBB80E0089587B321E0F3
:1004D00030E0062E02C0220F331F0A94E2F790E0AC
:1004E0008223932302C0959587956A95E2F7019739
:1004F00009F0B3C088B3282B28BB80E0089584B3EB
:1005000021E030E0062E02C0220F331F0A94E2F7EA
:1005100090E08223932302C0959587956A95E2F730
:10052000019709F09CC085B3282B25BB80E0089576
:1005300081B321E030E0062E02C0220F331F0A945F
:10054000E2F790E08223932302C0959587956A9500
:10055000E2F7019709F085C082B3282B22BB80E027
:100560000895411180C0823021F118F4813039F0B2
:100570007CC08330C1F1843009F44EC076C08AB3A8
:1005800021E030E0062E02C0220F331F0A94E2F76A
:1005900090E08223932302C0959587956A95E2F7B0
:1005A000019709F064C08BB3209528232BBB80E012
:1005B000089587B321E030E0062E02C0220F331FDA
:1005C0000A94E2F790E08223932302C095958795E1
:1005D0006A95E2F7019709F04CC088B3209528236B
:1005E00028BB80E0089584B321E030E0062E02C0ED
:1005F000220F331F0A94E2F790E08223932302C074
:10060000959587956A95E2F70197A9F585B32095A9
:10061000282325BB80E0089581B321E030E0062E39
:1006200002C0220F331F0A94E2F790E08223932343
:1006300002C0959587956A95E2F70197F1F482B328
:100640002095282322BB80E0089581E0089581E071
:10065000089581E0089581E0089581E0089581E0A2
:10066000089581E0089581E0089581E0089581E092
:10067000089581E0089581E0089581E0089585302E
:1006800008F05EC0683008F05DC08230E9F018F410
:10069000813031F059C0833059F18430E9F154C0D0
:1006A00049B381E090E09C01062E02C0220F331F67
:1006B0000A94E2F7842F90E08223932302C0959559
:1006C00087956A95E2F7089546B381E090E09C0132
:1006D000062E02C0220F331F0A94E2F7842F90E007
:1006E0008223932302C0959587956A95E2F7089532
:1006F00043B381E090E09C01062E02C0220F331F1D
:100700000A94E2F7842F90E08223932302C0959508
:1007100087956A95E2F7089540B381E090E09C01E7
:10072000062E02C0220F331F0A94E2F7842F90E0B6
:100730008223932302C0959587956A95E2F70895E1
:1007400081E0089581E0089581E00895CF93DF93DB
:10075000CDB7DEB728970FB6F894DEBF0FBECDBF7A
:1007600041E061E081E00E944F0121E040E061E072
:10077000CE0101960E94F200CE0101960E94300146
:1007800080916100882331F040E061E081E00E94C7
:100790003802F2CF41E061E081E00E943802ECCF04
:0407A000F894FFCFFB
:0207A400FF0153
:00000001FF
