:100000000C942A000C9447000C9447000C94470071
:100010000C9447000C9447000C9447000C94470044
:100020000C9447000C9447000C9447000C94470034
:100030000C9447000C948C020C94BF020C94F202B6
:100040000C9447000C9447000C9447000C94470014
:100050000C94470011241FBECFE5D8E0DEBFCDBF12
:1000600011E0A0E6B0E0EAEDF9E102C005900D92E2
:10007000AC3AB107D9F711E0ACEAB1E001C01D928A
:10008000A23BB107E1F70E94E20C0C94EB0C0C943C
:100090000000DF93CF9300D0CDB7DEB78A838FEF18
:1000A00089838A81823018F081E0898367C0ABE25E
:1000B000B0E0EBE2F0E0808182608C93ABE2B0E0F4
:1000C000EBE2F0E080818E7F8C93AAE2B0E0EAE27E
:1000D000F0E080818B7F8C93A0E4B0E0E0E4F0E07E
:1000E000808180688C93A0E4B0E0E0E4F0E080815F
:1000F00084608C93A0E4B0E0E0E4F0E08081826072
:100100008C93A0E4B0E0E0E4F0E08081877F8C9302
:10011000A0E4B0E0E0E4F0E080818F7D8C93A0E487
:10012000B0E0E0E4F0E080818F7E8C93A0E4B0E06A
:10013000E0E4F0E080818F7B8C93A0E4B0E0E0E429
:10014000F0E080818F778C93A0E4B0E0E0E4F0E011
:100150008081807F8C93E9E2F0E087E68083AAE2E9
:10016000B0E0EAE2F0E0808180618C93AAE2B0E046
:10017000EAE2F0E0808188608C93198289810F9097
:100180000F90CF91DF910895DF93CF9300D0CDB73B
:10019000DEB78FEF8A83ECE2F0E0808189831A82F8
:1001A0008A810F900F90CF91DF910895DF93CF93C5
:1001B00000D00F92CDB7DEB78A836B838FEF898330
:1001C000EBE2F0E08081882F90E08072907095954E
:1001D0008795959587959595879595958795959507
:1001E0008795009731F0ECE2F0E08B8180831982F3
:1001F00002C083E0898389810F900F900F90CF9187
:10020000DF910895DF93CF9300D000D0CDB7DEB754
:100210008A837C836B838FEF8983EBE2F0E08081BC
:10022000881F8827881F882F90E090708130910563
:1002300041F4ECE2F0E08081EB81FC818083198263
:1002400002C084E0898389810F900F900F900F90F6
:10025000CF91DF910895DF93CF9300D000D00F921C
:10026000CDB7DEB78B837D836C838FEF8A83198252
:10027000EC81FD818081882381F41A828B816DE07D
:100280000E94D6008823D1F78A810F900F900F909B
:100290000F900F90CF91DF910895EC81FD819081B7
:1002A0008B81692F0E94D6008823B9F789818F5FDF
:1002B00089838C819D8101969D838C83D9CFDF9327
:1002C000CF9300D000D00F92CDB7DEB78B837D8364
:1002D0006C838FEF8A8319822C813D818B81B901D8
:1002E0000E9402018823C1F7EC81FD8180818D305D
:1002F00029F0EC81FD8180818A3069F4EC81FD81F7
:1003000010821A828A810F900F900F900F900F9099
:10031000CF91DF9108958C819D8101969D838C837F
:1003200089818F5F8983D8CFDF93CF9300D000D0AE
:100330000F92CDB7DEB78A836B838FEF8983AFE5EA
:10034000B0E0EFE5F0E0808180688C938B818330B2
:1003500088F58B81282F30E03D832C838C819D8113
:100360008130910591F02C813D8122303105B1F031
:100370008C819D810097D9F4AAE2B0E0EAE2F0E036
:10038000808180688C93198217C0AAE2B0E0EAE20B
:10039000F0E0808180628C9319820EC0AAE2B0E006
:1003A000EAE2F0E0808180648C93198205C089E0E4
:1003B000898302C089E0898389810F900F900F9013
:1003C0000F900F90CF91DF910895DF93CF9300D0DE
:1003D00000D00F92CDB7DEB78A836B838FEF89830E
:1003E0008B81833088F58B81282F30E03D832C83EF
:1003F0008C819D818130910591F02C813D8122304D
:100400003105B1F08C819D810097D9F4AAE2B0E06A
:10041000EAE2F0E080818F778C93198217C0AAE21C
:10042000B0E0EAE2F0E080818F7D8C9319820EC00B
:10043000AAE2B0E0EAE2F0E080818F7B8C9319823F
:1004400005C088E0898302C088E0898389810F9094
:100450000F900F900F900F90CF91DF910895DF9341
:10046000CF9300D000D00F92CDB7DEB78A836B83D5
:100470005D834C8319828C819D81009731F08C8142
:100480009D819093AD018093AC0189810F900F9075
:100490000F900F900F90CF91DF910895DF93CF933E
:1004A00000D000D00F92CDB7DEB78A836B835D8317
:1004B0004C8319828C819D81009731F08C819D81C4
:1004C0009093AF018093AE0189810F900F900F90B0
:1004D0000F900F90CF91DF910895DF93CF9300D0CD
:1004E00000D00F92CDB7DEB78A836B835D834C83D8
:1004F00019828C819D81009731F08C819D81909330
:10050000B1018093B00189810F900F900F900F90EF
:100510000F90CF91DF9108951F920F920FB60F9217
:1005200011242F933F934F935F936F937F938F93F8
:100530009F93AF93BF93EF93FF93DF93CF93CDB789
:10054000DEB78091AC019091AD01009729F0E09168
:10055000AC01F091AD010995CF91DF91FF91EF9141
:10056000BF91AF919F918F917F916F915F914F91CB
:100570003F912F910F900FBE0F901F9018951F92D3
:100580000F920FB60F9211242F933F934F935F93C7
:100590006F937F938F939F93AF93BF93EF93FF934B
:1005A000DF93CF93CDB7DEB78091AE019091AF01CD
:1005B000009729F0E091AE01F091AF010995CF913C
:1005C000DF91FF91EF91BF91AF919F918F917F91BB
:1005D0006F915F914F913F912F910F900FBE0F90B0
:1005E0001F9018951F920F920FB60F9211242F9300
:1005F0003F934F935F936F937F938F939F93AF93AB
:10060000BF93EF93FF93DF93CF93CDB7DEB7809186
:10061000B0019091B101009729F0E091B001F09103
:10062000B1010995CF91DF91FF91EF91BF91AF910A
:100630009F918F917F916F915F914F913F912F91FA
:100640000F900FBE0F901F901895DF93CF9300D09F
:1006500000D00F92CDB7DEB78A836B8319828A816F
:10066000853008F03DC08B81882319F08B818F3F46
:10067000B9F58A81282F30E03D832C838C819D81C0
:1006800082309105D9F02C813D812330310534F43D
:100690008C819D818130910561F01FC02C813D814D
:1006A0002330310581F08C819D818430910581F06A
:1006B00014C0EAE3F0E08B81808314C0E7E3F0E04C
:1006C0008B8180830FC0E4E3F0E08B8180830AC0DC
:1006D000E1E3F0E08B81808305C081E0898302C083
:1006E00081E0898389810F900F900F900F900F9078
:1006F000CF91DF910895DF93CF9300D000D00F9278
:10070000CDB7DEB78A836B8319828A81853008F082
:1007100057C08A81282F30E03D832C838C819D81B6
:100720008230910519F12C813D812330310534F45B
:100730008C819D818130910561F03FC02C813D818C
:100740002330310501F18C819D818430910541F187
:1007500034C0ABE3B0E0EBE3F0E08081982F8B8115
:10076000809598238B81892B8C932CC0A8E3B0E0D3
:10077000E8E3F0E08081982F8B81809598238B812E
:10078000892B8C931FC0A5E3B0E0E5E3F0E0808106
:10079000982F8B81809598238B81892B8C9312C005
:1007A000A2E3B0E0E2E3F0E08081982F8B818095B6
:1007B00098238B81892B8C9305C081E0898302C0AB
:1007C00081E0898389810F900F900F900F900F9097
:1007D000CF91DF910895DF93CF93CDB7DEB72997FF
:1007E0000FB6F894DEBF0FBECDBF8A836B8319822C
:1007F0008A81853008F053C08A81282F30E03987FC
:100800002887888599858230910511F12885398559
:100810002330310534F4888599858130910561F064
:100820003BC02885398523303105F1F088859985CD
:100830008430910529F130C0EBE3F0E09081EBE3E7
:10084000F0E08B81882F90E080959095808329C07F
:10085000E8E3F0E02081E8E3F0E08B81882F90E08E
:100860008095909580831DC0E5E3F0E03081E5E35D
:10087000F0E08B81882F90E080959095808311C067
:10088000E2E3F0E08081E2E3F0E08B81882F90E00A
:1008900080959095808305C081E0898302C081E0C6
:1008A0008983898129960FB6F894DEBF0FBECDBF2C
:1008B000CF91DF910895DF93CF9300D000D0CDB7D3
:1008C000DEB78A8381E089838A818530B8F58A81A1
:1008D000282F30E03C832B838B819C8182309105D3
:1008E000D9F02B813C812330310534F48B819C81FC
:1008F0008130910561F01FC02B813C81233031058F
:1009000081F08B819C818430910581F014C0E9E3F2
:10091000F0E08081898314C0E6E3F0E08081898380
:100920000FC0E3E3F0E0808189830AC0E0E3F0E0F8
:100930008081898305C081E0898302C081E0898349
:1009400089810F900F900F900F90CF91DF910895B4
:10095000DF93CF9300D000D00F92CDB7DEB78A835C
:100960006B8319828A81853008F067C08A81282FBD
:1009700030E03D832C838C819D818230910539F15B
:100980002C813D812330310534F48C819D8181306F
:10099000910561F04FC02C813D812330310541F13B
:1009A0008C819D8184309105A1F144C0EAE3F0E09F
:1009B00080818F3F49F4ABE3B0E0EBE3F0E090815E
:1009C0008B8189278C933BC081E0898338C0E7E322
:1009D000F0E080818F3F49F4A8E3B0E0E8E3F0E085
:1009E00090818B8189278C932AC081E0898327C0DD
:1009F000E4E3F0E080818F3F49F4A5E3B0E0E5E374
:100A0000F0E090818B8189278C9319C081E08983E4
:100A100016C0E1E3F0E080818F3F49F4A2E3B0E04B
:100A2000E2E3F0E090818B8189278C9308C081E01C
:100A3000898305C081E0898302C081E0898389813F
:100A40000F900F900F900F900F90CF91DF9108951E
:100A5000DF93CF93CDB7DEB728970FB6F894DEBFFC
:100A60000FBECDBF8A836B834C8319828A81853008
:100A700008F0FAC08B81883008F0F6C08C81813094
:100A800009F073C08A81282F30E038872F838F8147
:100A900098858230910551F12F81388523303105B9
:100AA00034F48F8198858130910561F05BC02F818E
:100AB00038852330310571F18F8198858430910517
:100AC000E9F150C0AAE3B0E0EAE3F0E08081482F0A
:100AD0008B81282F30E081E090E0022E02C0880F49
:100AE000991F0A94E2F7842B8C93C0C0A7E3B0E06F
:100AF000E7E3F0E08081482F8B81282F30E081E010
:100B000090E0022E02C0880F991F0A94E2F7842B0E
:100B10008C93ACC0A4E3B0E0E4E3F0E08081482F24
:100B20008B81282F30E081E090E0022E02C0880FF8
:100B3000991F0A94E2F7842B8C9398C0A1E3B0E04C
:100B4000E1E3F0E08081482F8B81282F30E081E0C5
:100B500090E0022E02C0880F991F0A94E2F7842BBE
:100B60008C9384C081E0898381C08C81882309F0C3
:100B700078C08A81282F30E03E832D838D819E812D
:100B80008230910561F12D813E812330310534F4AD
:100B90008D819E818130910569F060C02D813E81FB
:100BA0002330310589F18D819E818430910509F4CE
:100BB00040C054C0AAE3B0E0EAE3F0E08081482FEF
:100BC0008B81282F30E081E090E0022E02C0880F58
:100BD000991F0A94E2F7809584238C9347C0A7E37A
:100BE000B0E0E7E3F0E08081482F8B81282F30E0F0
:100BF00081E090E0022E02C0880F991F0A94E2F76C
:100C0000809584238C9332C0A4E3B0E0E4E3F0E069
:100C10008081482F8B81282F30E081E090E0022EE8
:100C200002C0880F991F0A94E2F7809584238C9361
:100C30001DC0A1E3B0E0E1E3F0E08081482F8B81AB
:100C4000282F30E081E090E0022E02C0880F991F2B
:100C50000A94E2F7809584238C9308C081E089830D
:100C600005C081E0898302C081E08983898128965B
:100C70000FB6F894DEBF0FBECDBFCF91DF910895C0
:100C8000DF93CF93CDB7DEB728970FB6F894DEBFCA
:100C90000FBECDBF8A836B834C8319828A818530D6
:100CA00008F00FC28B81883008F00BC28C81813034
:100CB00009F0FEC08A81282F30E038872F834F81CA
:100CC00058854230510509F44EC08F819885833094
:100CD000910534F42F8138852130310571F0E5C05C
:100CE0004F8158854330510509F473C08F81988531
:100CF0008430910509F4A3C0D8C0EAE3F0E0808114
:100D0000482F50E08B81282F30E081E090E002C036
:100D1000880F991F2A95E2F79A01282339238B819E
:100D2000882F90E0A90102C0559547958A95E2F772
:100D3000CA0181309105A1F4ABE3B0E0EBE3F0E050
:100D40008081482F8B81282F30E081E090E0022EB7
:100D500002C0880F991F0A94E2F7842B8C93B3C1C9
:100D600081E08983B0C1E7E3F0E08081482F50E063
:100D70008B81282F30E081E090E002C0880F991F1E
:100D80002A95E2F79A01282339238B81882F90E056
:100D9000A90102C0559547958A95E2F7CA018130AD
:100DA0009105A1F4A8E3B0E0E8E3F0E08081482FEA
:100DB0008B81282F30E081E090E0022E02C0880F66
:100DC000991F0A94E2F7842B8C937DC181E089837B
:100DD0007AC1E4E3F0E08081482F50E08B81282F36
:100DE00030E081E090E002C0880F991F2A95E2F779
:100DF0009A01282339238B81882F90E0A90102C012
:100E0000559547958A95E2F7CA0181309105A1F47D
:100E1000A5E3B0E0E5E3F0E08081482F8B81282F47
:100E200030E081E090E0022E02C0880F991F0A9402
:100E3000E2F7842B8C9347C181E0898344C1E1E3CD
:100E4000F0E08081482F50E08B81282F30E081E056
:100E500090E002C0880F991F2A95E2F79A01282393
:100E600039238B81882F90E0A90102C055954795C1
:100E70008A95E2F7CA0181309105A1F4A2E3B0E0BE
:100E8000E2E3F0E08081482F8B81282F30E081E081
:100E900090E0022E02C0880F991F0A94E2F7842B7B
:100EA0008C9311C181E089830EC181E089830BC1DC
:100EB0008C81882309F002C18A81282F30E03E838B
:100EC0002D834D815E814230510509F44FC08D81E3
:100ED0009E818330910534F42D813E81213031058E
:100EE00071F0E9C04D815E814330510509F475C050
:100EF0008D819E818430910509F4A6C0DCC0EAE3AF
:100F0000F0E08081482F50E08B81282F30E081E095
:100F100090E002C0880F991F2A95E2F79A012823D2
:100F200039238B81882F90E0A90102C05595479500
:100F30008A95E2F7CA0181309105A9F4ABE3B0E0EC
:100F4000EBE3F0E08081482F8B81282F30E081E0B7
:100F500090E0022E02C0880F991F0A94E2F7809554
:100F600084238C93B0C081E08983ADC0E7E3F0E0D7
:100F70008081482F50E08B81282F30E081E090E085
:100F800002C0880F991F2A95E2F79A012823392376
:100F90008B81882F90E0A90102C0559547958A95CD
:100FA000E2F7CA0181309105A9F4A8E3B0E0E8E3D3
:100FB000F0E08081482F8B81282F30E081E090E0A5
:100FC000022E02C0880F991F0A94E2F780958423AD
:100FD0008C9379C081E0898376C0E4E3F0E080817E
:100FE000482F50E08B81282F30E081E090E002C054
:100FF000880F991F2A95E2F79A01282339238B81BC
:10100000882F90E0A90102C0559547958A95E2F78F
:10101000CA0181309105A9F4A5E3B0E0E5E3F0E071
:101020008081482F8B81282F30E081E090E0022ED4
:1010300002C0880F991F0A94E2F7809584238C934D
:1010400042C081E089833FC0E1E3F0E08081482F26
:1010500050E08B81282F30E081E090E002C0880FC3
:10106000991F2A95E2F79A01282339238B81882F2B
:1010700090E0A90102C0559547958A95E2F7CA010B
:1010800081309105A9F4A2E3B0E0E2E3F0E08081D1
:10109000482F8B81282F30E081E090E0022E02C0A3
:1010A000880F991F0A94E2F7809584238C930BC0D4
:1010B00081E0898308C081E0898305C081E089835C
:1010C00002C081E08983898128960FB6F894DEBF3B
:1010D0000FBECDBFCF91DF910895DF93CF9300D0A6
:1010E00000D00F92CDB7DEB78A836B8319828A81D5
:1010F000853008F002C18B81883008F0FEC08A81FB
:10110000282F30E03D832C834C815D814230510596
:1011100009F44EC08C819D818330910534F42C817B
:101120003D812130310571F0E5C04C815D81433056
:10113000510509F473C08C819D818430910509F4B7
:10114000A3C0D8C0EAE3F0E08081482F50E08B8153
:10115000282F30E081E090E002C0880F991F2A9587
:10116000E2F79A01282339238B81882F90E0A90187
:1011700002C0559547958A95E2F7CA0181309105DD
:10118000A1F4ABE3B0E0EBE3F0E08081482F8B818A
:10119000282F30E081E090E0022E02C0880F991FD6
:1011A0000A94E2F784278C93AAC081E08983A7C0C0
:1011B000E7E3F0E08081482F50E08B81282F30E07A
:1011C00081E090E002C0880F991F2A95E2F79A010A
:1011D000282339238B81882F90E0A90102C05595DF
:1011E00047958A95E2F7CA0181309105A1F4A8E3F9
:1011F000B0E0E8E3F0E08081482F8B81282F30E0D9
:1012000081E090E0022E02C0880F991F0A94E2F755
:1012100084278C9374C081E0898371C0E4E3F0E09B
:101220008081482F50E08B81282F30E081E090E0D2
:1012300002C0880F991F2A95E2F79A0128233923C3
:101240008B81882F90E0A90102C0559547958A951A
:10125000E2F7CA0181309105A1F4A5E3B0E0E5E32E
:10126000F0E08081482F8B81282F30E081E090E0F2
:10127000022E02C0880F991F0A94E2F784278C93EC
:101280003EC081E089833BC0E1E3F0E08081482FEC
:1012900050E08B81282F30E081E090E002C0880F81
:1012A000991F2A95E2F79A01282339238B81882FE9
:1012B00090E0A90102C0559547958A95E2F7CA01C9
:1012C00081309105A1F4A2E3B0E0E2E3F0E0808197
:1012D000482F8B81282F30E081E090E0022E02C061
:1012E000880F991F0A94E2F784278C9308C081E045
:1012F000898305C081E0898302C081E08983898177
:101300000F900F900F900F900F90CF91DF91089555
:10131000DF93CF93CDB7DEB727970FB6F894DEBF34
:101320000FBECDBF8A836B835D834C8319828A8114
:10133000853008F0A9C08B81883008F0A5C08A816B
:10134000282F30E03F832E834E815F81423051054C
:10135000C1F18E819F818330910534F42E813F81CC
:101360002130310571F08DC04E815F8143305105D0
:1013700009F447C08E819F818430910509F461C0D2
:1013800080C0E9E3F0E08081482F50E08B81282F76
:1013900030E081E090E002C0880F991F2A95E2F7C3
:1013A0009A01282339238B81882F90E0A90102C05C
:1013B000559547958A95E2F7CA01EC81FD818083B6
:1013C00065C0E6E3F0E08081482F50E08B81282F54
:1013D00030E081E090E002C0880F991F2A95E2F783
:1013E0009A01282339238B81882F90E0A90102C01C
:1013F000559547958A95E2F7CA01EC81FD81808376
:1014000045C0E3E3F0E08081482F50E08B81282F36
:1014100030E081E090E002C0880F991F2A95E2F742
:101420009A01282339238B81882F90E0A90102C0DB
:10143000559547958A95E2F7CA01EC81FD81808335
:1014400025C0E0E3F0E08081482F50E08B81282F19
:1014500030E081E090E002C0880F991F2A95E2F702
:101460009A01282339238B81882F90E0A90102C09B
:10147000559547958A95E2F7CA01EC81FD818083F5
:1014800005C081E0898302C081E089838981279634
:101490000FB6F894DEBF0FBECDBFCF91DF91089598
:1014A000DF93CF9300D000D00F92CDB7DEB78A8301
:1014B0006B8319828A81853008F099C08B818830CE
:1014C00008F095C08A81282F30E03D832C838C81E1
:1014D0009D8182309105A1F12C813D812330310520
:1014E00034F48C819D818130910571F07DC02C8117
:1014F0003D812330310509F43FC08C819D818430CA
:10150000910509F455C070C0EAE3F0E080818823BA
:10151000A1F4ABE3B0E0EBE3F0E08081482F8B81F6
:10152000282F30E081E090E0022E02C0880F991F42
:101530000A94E2F7842B8C935CC081E0898359C0C4
:10154000E7E3F0E080818823A1F4A8E3B0E0E8E3DA
:10155000F0E08081482F8B81282F30E081E090E0FF
:10156000022E02C0880F991F0A94E2F7842B8C93F5
:1015700040C081E089833DC0E4E3F0E080818823BE
:10158000A1F4A5E3B0E0E5E3F0E08081482F8B8192
:10159000282F30E081E090E0022E02C0880F991FD2
:1015A0000A94E2F7842B8C9324C081E0898321C0C4
:1015B000E1E3F0E080818823A1F4A2E3B0E0E2E37C
:1015C000F0E08081482F8B81282F30E081E090E08F
:1015D000022E02C0880F991F0A94E2F7842B8C9385
:1015E00008C081E0898305C081E0898302C081E071
:1015F000898389810F900F900F900F900F90CF915A
:10160000DF910895DF93CF9300D000D0CDB7DEB740
:101610008A836B834C8319828A816B8140E00E94AC
:1016200028058C81882321F48A816B810E94200BFC
:1016300089810F900F900F900F90CF91DF910895B7
:10164000DF93CF9300D00F92CDB7DEB78A836B8341
:1016500019828A816B810E94500A89810F900F90B4
:101660000F90CF91DF910895DF93CF93CDB7DEB781
:1016700027970FB6F894DEBF0FBECDBF8E836F8362
:101680008E816F819E012F5F3F4FA9010E948809C3
:101690008981882331F51B821A8215C01C820BC0F8
:1016A0001D8203C08D818F5F8D838D818431D0F346
:1016B0008C818F5F8C838C81803190F38A819B81B8
:1016C00001969B838A838A819B8123E0883E9207CF
:1016D00028F38E816F819E012F5F3F4FA9010E94E9
:1016E0008809898127960FB6F894DEBF0FBECDBF5B
:1016F000CF91DF910895DF93CF9300D0CDB7DEB7C0
:1017000089836A8389816A8141E00E9428050F905C
:101710000F90CF91DF910895DF93CF9300D0CDB795
:10172000DEB789836A8389816A810E946D080F9080
:101730000F90CF91DF910895DF93CF9300D0CDB775
:10174000DEB789836A8389816A8141E00E9440060D
:101750000F900F90CF91DF910895DF93CF9300D03A
:10176000CDB7DEB789836A8389816A8140E00E94B0
:1017700040060F900F90CF91DF910895DF93CF93A4
:10178000CDB7DEB781E00E94490081E062E00E94AF
:101790007B0B81E061E00E947B0B81E060E00E94B6
:1017A0007B0B81E060E00E94AD0B81E061E00E9474
:1017B000AD0B81E062E00E94AD0BCF91DF91089507
:1017C000DF93CF9300D00F92CDB7DEB725EA30E09C
:1017D00081E0B9010E945F018823C1F785EA90E0AA
:1017E00024EA31E0B9010E946F0C89838981282F96
:1017F00030E03B832A838A819B818130910559F1B6
:101800002A813B81223031052CF48A819B8100970B
:1018100069F05FC02A813B812230310589F18A81DC
:101820009B818330910509F440C053C081E060E0A2
:101830000E949C0B81E061E00E94AD0B81E062E0C0
:101840000E94AD0B23E730E081E0B9010E942B013B
:101850008823C1F73EC081E060E00E94AD0B81E0CB
:1018600061E00E94AD0B81E062E00E949C0B23E8E6
:1018700030E081E0B9010E942B018823C1F729C023
:1018800081E060E00E94AD0B81E061E00E949C0B72
:1018900081E062E00E94AD0B21E930E081E0B90116
:1018A0000E942B018823C1F714C081E060E00E94F0
:1018B000AD0B81E061E00E94AD0B81E062E00E942F
:1018C000AD0B22EA30E081E0B9010E942B018823B0
:1018D000C1F70F900F900F90CF91DF910895DF9394
:1018E000CF93CDB7DEB728970FB6F894DEBF0FBE03
:1018F000CDBF9C838B837E836D831A8256C01982F1
:101900008981282F30E08B819C81FC01E20FF31F3D
:1019100040818A81882F90E09C01220F331F8D81A6
:101920009E81FC01E20FF31F208131818981882F84
:1019300090E0F901E80FF91F8081481729F58981A6
:10194000282F30E08B819C81FC01E20FF31F808106
:10195000882339F58A81882F90E09C01220F331F5C
:101960008D819E81FC01E20FF31F208131818981ED
:10197000882F90E0F901E80FF91F8081882389F40E
:101980008A818887888515C08981282F30E08B81DE
:101990009C81FC01E20FF31F80818A818F5F8A8323
:1019A00004C089818F5F8983ABCF8A81843008F43A
:1019B000A6CF28960FB6F894DEBF0FBECDBFCF914D
:1019C000DF910895DF93CF93CDB7DEB70E94BE0BB2
:0A19D0000E94E00BFDCFF894FFCF5A
:1019DA0053544152540053544F50005741495400F4
:1019EA00415400477265656E204C45442069732056
:1019FA006F6E00526564204C4544206973206F6EF7
:101A0A000059656C6C6F77204C4544206973206FD0
:101A1A006E004F4B0061686D6564000000000000B5
:101A2A0000000000000000000000000000000000AC
:101A3A00000000000000000000000000000000009C
:101A4A00000000000000000000000000000000008C
:101A5A00000000000000000000000000000000007C
:101A6A00000000000000000000000000000000006C
:101A7A00000000000000000000000000000000005C
:101A8A00000000000000000000000000000000004C
:101A9A00000000000000000000000000000000003C
:101AAA00000000000000000000000000000000002C
:101ABA00000000000000000000000000000000001C
:101ACA00000000000000000000000000000000000C
:101ADA0000000000000000000000000000000000FC
:101AEA0000000000000000000000000000000000EC
:101AFA0000000000000000000000000000000000DC
:101B0A0000000000000000000000000000000000CB
:0C1B1A0000000000600066006B0070001E
:00000001FF
