:100000000C942A000C943C000C943C000C943C0092
:100010000C943C000C943C000C943C000C943C0070
:100020000C943C000C943C000C943C000C943C0060
:100030000C943C000C943C000C943C000C943C0050
:100040000C943C000C943C000C943C000C943C0040
:100050000C943C0011241FBECFE5D8E0DEBFCDBF1D
:1000600020E0A0E6B0E001C01D92A436B207E1F79F
:100070000E94FA020C9403030C940000853008F0EF
:1000800081C0683008F080C04130D9F58230A9F0D5
:1000900018F4813031F07AC08330D9F0843029F1FE
:1000A00075C081E090E002C0880F991F6A95E2F761
:1000B0009AB3892B8ABB80E0089581E090E002C06A
:1000C000880F991F6A95E2F797B3892B87BB80E069
:1000D000089581E090E002C0880F991F6A95E2F7C9
:1000E00094B3892B84BB80E0089581E090E002C046
:1000F000880F991F6A95E2F791B3892B81BB80E045
:100100000895411145C08230B1F018F4813031F0CA
:1001100041C08330E9F0843041F13CC081E090E09F
:1001200002C0880F991F6A95E2F780959AB38923D8
:100130008ABB80E0089581E090E002C0880F991F9B
:100140006A95E2F7809597B3892387BB80E008958D
:1001500081E090E002C0880F991F6A95E2F78095D0
:1001600094B3892384BB80E0089581E090E002C0CD
:10017000880F991F6A95E2F7809591B3892381BB17
:1001800080E0089581E0089581E0089581E0089578
:1001900081E0089581E00895853008F070C06830EE
:1001A00008F06FC0823019F118F4813039F06BC05B
:1001B0008330A9F1843009F44AC065C08AB321E0D4
:1001C00030E0062E02C0220F331F0A94E2F790E0BF
:1001D0008223932302C0959587956A95E2F7892B30
:1001E00009F053C08BB3282B2BBB80E0089587B355
:1001F00021E030E0062E02C0220F331F0A94E2F7FE
:1002000090E08223932302C0959587956A95E2F743
:10021000892BE9F588B3282B28BB80E0089584B3A7
:1002200021E030E0062E02C0220F331F0A94E2F7CD
:1002300090E08223932302C0959587956A95E2F713
:10024000892B39F585B3282B25BB80E0089581B330
:1002500021E030E0062E02C0220F331F0A94E2F79D
:1002600090E08223932302C0959587956A95E2F7E3
:10027000892B89F482B3282B22BB80E0089581E08A
:10028000089581E0089581E0089581E0089581E076
:10029000089581E0089581E00895853008F06BC0ED
:1002A000683008F06AC0823009F118F4813039F002
:1002B00066C0833091F1843009F446C060C079B3E0
:1002C00081E090E09C01062E02C0220F331F0A94A9
:1002D000E2F7872F90E08223932302C095958795BC
:1002E0006A95E2F7FA01808380E0089576B381E0B1
:1002F00090E09C01062E02C0220F331F0A94E2F701
:10030000872F90E08223932302C0959587956A9565
:10031000E2F7FA01808380E0089573B381E090E012
:100320009C01062E02C0220F331F0A94E2F7872F8A
:1003300090E08223932302C0959587956A95E2F712
:10034000FA01808380E0089570B381E090E09C0121
:10035000062E02C0220F331F0A94E2F7872F90E087
:100360008223932302C0959587956A95E2F7FA0157
:10037000808380E0089581E0089581E0089581E020
:100380000895853008F070C0683008F06FC0823082
:1003900019F118F4813039F06BC08330A9F1843041
:1003A00009F44AC065C08AB321E030E0062E02C0DD
:1003B000220F331F0A94E2F790E08223932302C0B6
:1003C000959587956A95E2F7019709F053C08BB32D
:1003D00028272BBB80E0089587B321E030E0062E6C
:1003E00002C0220F331F0A94E2F790E08223932386
:1003F00002C0959587956A95E2F70197E9F588B36C
:10040000282728BB80E0089584B321E030E0062E41
:1004100002C0220F331F0A94E2F790E08223932355
:1004200002C0959587956A95E2F7019739F585B3EE
:10043000282725BB80E0089581B321E030E0062E17
:1004400002C0220F331F0A94E2F790E08223932325
:1004500002C0959587956A95E2F7019789F482B372
:10046000282722BB80E0089581E0089581E0089567
:1004700081E0089581E0089581E0089581E0089584
:1004800081E0089541E00E943E0008950E94C1016C
:1004900008950E94CC0008950F931F93CF93DF938C
:1004A000D82F162F042F40E00E943E00C82F0111C4
:1004B00005C0612F8D2F0E944902C82B8C2FDF9120
:1004C000CF911F910F910895CF92DF92FF920F93DA
:1004D0001F93CF93DF9300D000D01F92CDB7DEB72C
:1004E000082FF62E6A011982AE014F5F5F4F0E94FE
:1004F0004D01182F8981811125C01B821A8215C0D8
:100500001D820BC01C8203C08C818F5F8C838C8109
:100510008431D0F38D818F5F8D838D81803190F315
:100520008A819B8101969B838A838A819B81883EF5
:10053000934030F3AE014F5F5F4F6F2D802F0E94CD
:100540004D01182B8981F6018083812F0F900F9028
:100550000F900F900F90DF91CF911F910F91FF900F
:10056000DF90CF9008950F931F93CF93DF93082FC1
:10057000162FD42FC22F622F842F0E94420240E0F8
:10058000612F802F0E944C02009363001093620041
:10059000D0936100C0936000DF91CF911F910F91C4
:1005A0000895CF93DF931F92CDB7DEB71982AE01C6
:1005B0004F5F5F4F60916200809163000E94640210
:1005C0008981882351F012C0AE014F5F5F4F609167
:1005D0006200809163000E94640289818823A1F3F4
:1005E00060916000809161000E9446020F90DF914F
:1005F000CF91089520E041E061E081E00E94B302E4
:0A0600000E94D102FDCFF894FFCF55
:00000001FF
