S023000074657374696E7465727275707468616E646C65727061747465726E2E7372656378
S11300000C942A000C943C010C9460010C9484011F
S11300100C94A8010C94CC010C94F0010C941402DF
S11300200C9438020C945C020C9480020C94A4028C
S11300300C94C8020C94EC020C9410030C9434033A
S11300400C9458030C947C030C94A0030C94C403E8
S11300500C94E80311241FBECFE5D8E0DEBFCDBF6A
S113006020E0A0E6B0E001C01D92A938B207E1F794
S11300700E9487050C94AC056115710559F0E82FB1
S1130080F0E03197EE0FFF1FE05AFF4F718360835A
S113009080E0089581E0089580916000909161006E
S11300A0892B29F0E0916000F09161000995089591
S11300B08091620090916300892B29F0E0916200A5
S11300C0F091630009950895809164009091650012
S11300D0892B29F0E0916400F09165000995089559
S11300E08091660090916700892B29F0E091660069
S11300F0F0916700099508958091680090916900D6
S1130100892B29F0E0916800F09169000995089520
S113011080916A0090916B00892B29F0E0916A002C
S1130120F0916B000995089580916C0090916D0099
S1130130892B29F0E0916C00F0916D0009950895E8
S113014080916E0090916F00892B29F0E0916E00F0
S1130150F0916F000995089580917000909171005D
S1130160892B29F0E0917000F091710009950895B0
S11301708091720090917300892B29F0E0917200B4
S1130180F091730009950895809174009091750021
S1130190892B29F0E0917400F09175000995089578
S11301A08091760090917700892B29F0E091760078
S11301B0F0917700099508958091780090917900E5
S11301C0892B29F0E0917800F09179000995089540
S11301D080917A0090917B00892B29F0E0917A003C
S11301E0F0917B000995089580917C0090917D00A9
S11301F0892B29F0E0917C00F0917D000995089508
S113020080917E0090917F00892B29F0E0917E00FF
S1130210F0917F000995089580918000909181006C
S1130220892B29F0E0918000F091810009950895CF
S11302308091820090918300892B29F0E0918200C3
S1130240F091830009950895809184009091850030
S1130250892B29F0E0918400F09185000995089597
S11302608091860090918700892B29F0E091860087
S1130270F0918700099508951F920F920FB60F927F
S113028011242F933F934F935F936F937F938F9397
S11302909F93AF93BF93EF93FF930E944C00FF9102
S11302A0EF91BF91AF919F918F917F916F915F91EA
S11302B04F913F912F910F900FBE0F901F90189563
S11302C01F920F920FB60F9211242F933F934F93C7
S11302D05F936F937F938F939F93AF93BF93EF93AA
S11302E0FF930E945800FF91EF91BF91AF919F91AE
S11302F08F917F916F915F914F913F912F910F90CB
S11303000FBE0F901F9018951F920F920FB60F9269
S113031011242F933F934F935F936F937F938F9306
S11303209F93AF93BF93EF93FF930E946400FF9159
S1130330EF91BF91AF919F918F917F916F915F9159
S11303404F913F912F910F900FBE0F901F901895D2
S11303501F920F920FB60F9211242F933F934F9336
S11303605F936F937F938F939F93AF93BF93EF9319
S1130370FF930E947000FF91EF91BF91AF919F9105
S11303808F917F916F915F914F913F912F910F903A
S11303900FBE0F901F9018951F920F920FB60F92D9
S11303A011242F933F934F935F936F937F938F9376
S11303B09F93AF93BF93EF93FF930E947C00FF91B1
S11303C0EF91BF91AF919F918F917F916F915F91C9
S11303D04F913F912F910F900FBE0F901F90189542
S11303E01F920F920FB60F9211242F933F934F93A6
S11303F05F936F937F938F939F93AF93BF93EF9389
S1130400FF930E948800FF91EF91BF91AF919F915C
S11304108F917F916F915F914F913F912F910F90A9
S11304200FBE0F901F9018951F920F920FB60F9248
S113043011242F933F934F935F936F937F938F93E5
S11304409F93AF93BF93EF93FF930E949400FF9108
S1130450EF91BF91AF919F918F917F916F915F9138
S11304604F913F912F910F900FBE0F901F901895B1
S11304701F920F920FB60F9211242F933F934F9315
S11304805F936F937F938F939F93AF93BF93EF93F8
S1130490FF930E94A000FF91EF91BF91AF919F91B4
S11304A08F917F916F915F914F913F912F910F9019
S11304B00FBE0F901F9018951F920F920FB60F92B8
S11304C011242F933F934F935F936F937F938F9355
S11304D09F93AF93BF93EF93FF930E94AC00FF9160
S11304E0EF91BF91AF919F918F917F916F915F91A8
S11304F04F913F912F910F900FBE0F901F90189521
S11305001F920F920FB60F9211242F933F934F9384
S11305105F936F937F938F939F93AF93BF93EF9367
S1130520FF930E94B800FF91EF91BF91AF919F910B
S11305308F917F916F915F914F913F912F910F9088
S11305400FBE0F901F9018951F920F920FB60F9227
S113055011242F933F934F935F936F937F938F93C4
S11305609F93AF93BF93EF93FF930E94C400FF91B7
S1130570EF91BF91AF919F918F917F916F915F9117
S11305804F913F912F910F900FBE0F901F90189590
S11305901F920F920FB60F9211242F933F934F93F4
S11305A05F936F937F938F939F93AF93BF93EF93D7
S11305B0FF930E94D000FF91EF91BF91AF919F9163
S11305C08F917F916F915F914F913F912F910F90F8
S11305D00FBE0F901F9018951F920F920FB60F9297
S11305E011242F933F934F935F936F937F938F9334
S11305F09F93AF93BF93EF93FF930E94DC00FF910F
S1130600EF91BF91AF919F918F917F916F915F9186
S11306104F913F912F910F900FBE0F901F901895FF
S11306201F920F920FB60F9211242F933F934F9363
S11306305F936F937F938F939F93AF93BF93EF9346
S1130640FF930E94E800FF91EF91BF91AF919F91BA
S11306508F917F916F915F914F913F912F910F9067
S11306600FBE0F901F9018951F920F920FB60F9206
S113067011242F933F934F935F936F937F938F93A3
S11306809F93AF93BF93EF93FF930E94F400FF9166
S1130690EF91BF91AF919F918F917F916F915F91F6
S11306A04F913F912F910F900FBE0F901F9018956F
S11306B01F920F920FB60F9211242F933F934F93D3
S11306C05F936F937F938F939F93AF93BF93EF93B6
S11306D0FF930E940001FF91EF91BF91AF919F9111
S11306E08F917F916F915F914F913F912F910F90D7
S11306F00FBE0F901F9018951F920F920FB60F9276
S113070011242F933F934F935F936F937F938F9312
S11307109F93AF93BF93EF93FF930E940C01FF91BC
S1130720EF91BF91AF919F918F917F916F915F9165
S11307304F913F912F910F900FBE0F901F901895DE
S11307401F920F920FB60F9211242F933F934F9342
S11307505F936F937F938F939F93AF93BF93EF9325
S1130760FF930E941801FF91EF91BF91AF919F9168
S11307708F917F916F915F914F913F912F910F9046
S11307800FBE0F901F9018951F920F920FB60F92E5
S113079011242F933F934F935F936F937F938F9382
S11307A09F93AF93BF93EF93FF930E942401FF9114
S11307B0EF91BF91AF919F918F917F916F915F91D5
S11307C04F913F912F910F900FBE0F901F9018954E
S11307D01F920F920FB60F9211242F933F934F93B2
S11307E05F936F937F938F939F93AF93BF93EF9395
S11307F0FF930E943001FF91EF91BF91AF919F91C0
S11308008F917F916F915F914F913F912F910F90B5
S11308100FBE0F901F901895853008F081C0683086
S113082008F080C04130D9F58230A9F018F4813045
S113083031F07AC08330D9F0843029F175C02AB3FD
S113084081E090E002C0880F991F6A95E2F7822B3D
S11308508ABB80E0089527B381E090E002C0880F4E
S1130860991F6A95E2F7822B87BB80E0089524B331
S113087081E090E002C0880F991F6A95E2F7822B0D
S113088084BB80E0089521B381E090E002C0880F2A
S1130890991F6A95E2F7822B81BB80E0089541118C
S11308A045C08230B1F018F4813031F041C083305A
S11308B0E9F0843041F13CC02AB381E090E002C009
S11308C0880F991F6A95E2F7809582238ABB80E09E
S11308D0089527B381E090E002C0880F991F6A95BC
S11308E0E2F78095822387BB80E0089524B381E0FA
S11308F090E002C0880F991F6A95E2F780958223E1
S113090084BB80E0089521B381E090E002C0880FA9
S1130910991F6A95E2F78095822381BB80E0089550
S113092081E0089581E0089581E0089581E00895CB
S113093081E00895853008F04AC0683008F049C065
S11309408230C1F018F4813031F045C0833009F1B0
S1130950843071F140C08AB381113FC02BB381E070
S113096090E002C0880F991F6A95E2F7822B8BBB37
S113097080E0089587B3811132C028B381E090E00C
S113098002C0880F991F6A95E2F7822B88BB80E02A
S1130990089584B3811125C025B381E090E002C09D
S11309A0880F991F6A95E2F7822B85BB80E0089532
S11309B081B3811118C022B381E090E002C0880F96
S11309C0991F6A95E2F7822B82BB80E0089581E04B
S11309D0089581E0089581E0089581E0089581E01B
S11309E0089581E0089581E00895853008F070C08D
S11309F0683008F06FC0823019F118F4813039F092
S1130A006BC08330A9F1843009F44AC065C08AB34D
S1130A1021E030E0062E02C0220F331F0A94E2F7D1
S1130A2090E08223932302C0959587956A95E2F717
S1130A30019709F053C08BB328272BBB80E008959E
S1130A4087B321E030E0062E02C0220F331F0A9440
S1130A50E2F790E08223932302C0959587956A95E7
S1130A60E2F70197E9F588B3282728BB80E00895C9
S1130A7084B321E030E0062E02C0220F331F0A9413
S1130A80E2F790E08223932302C0959587956A95B7
S1130A90E2F7019739F585B3282725BB80E008954F
S1130AA081B321E030E0062E02C0220F331F0A94E6
S1130AB0E2F790E08223932302C0959587956A9587
S1130AC0E2F7019789F482B3282722BB80E00895D6
S1130AD081E0089581E0089581E0089581E008951A
S1130AE081E0089581E0089581E00895809188006F
S1130AF0863040F48F5F8093880060E081E00E943C
S1130B00F504089561E081E00E94F504089540E051
S1130B1062E084E00E940C0462E084E00E949A0493
S1130B2041E060E081E00E940C0441E061E081E08A
S1130B300E940C048FB780688FBF85B78C7F85BFF8
S1130B4085B7826085BF8BB780648BBF66E775E02D
S10F0B5081E00E943C00FFCFF894FFCF2E
S9030000FC
