:100000000C942A000C94EC000C9410010C94340114
:100010000C9458010C947C010C94A0010C94C40124
:100020000C94E8010C940C020C9430020C945402D1
:100030000C9478020C949C020C94C0020C94E40280
:100040000C9408030C942C030C9450030C9474032C
:100050000C94980311241FBECFE5D8E0DEBFCDBFBE
:1000600020E0A0E6B0E001C01D92A938B207E1F798
:100070000E9437050C945C056115710559F0E82F55
:10008000F0E03197EE0FFF1FE05AFF4F718360835E
:1000900080E0089581E00895E0916000F0916100B2
:1000A000309709F009950895E0916200F09163009E
:1000B000309709F009950895E0916400F09165008A
:1000C000309709F009950895E0916600F091670076
:1000D000309709F009950895E0916800F091690062
:1000E000309709F009950895E0916A00F0916B004E
:1000F000309709F009950895E0916C00F0916D003A
:10010000309709F009950895E0916E00F0916F0025
:10011000309709F009950895E0917000F091710011
:10012000309709F009950895E0917200F0917300FD
:10013000309709F009950895E0917400F0917500E9
:10014000309709F009950895E0917600F0917700D5
:10015000309709F009950895E0917800F0917900C1
:10016000309709F009950895E0917A00F0917B00AD
:10017000309709F009950895E0917C00F0917D0099
:10018000309709F009950895E0917E00F0917F0085
:10019000309709F009950895E0918000F091810071
:1001A000309709F009950895E0918200F09183005D
:1001B000309709F009950895E0918400F091850049
:1001C000309709F009950895E0918600F091870035
:1001D000309709F0099508951F920F920FB60F926C
:1001E00011242F933F934F935F936F937F938F933C
:1001F0009F93AF93BF93EF93FF930E944C00FF91A7
:10020000EF91BF91AF919F918F917F916F915F918E
:100210004F913F912F910F900FBE0F901F90189507
:100220001F920F920FB60F9211242F933F934F936B
:100230005F936F937F938F939F93AF93BF93EF934E
:10024000FF930E945400FF91EF91BF91AF919F9156
:100250008F917F916F915F914F913F912F910F906F
:100260000FBE0F901F9018951F920F920FB60F920E
:1002700011242F933F934F935F936F937F938F93AB
:100280009F93AF93BF93EF93FF930E945C00FF9106
:10029000EF91BF91AF919F918F917F916F915F91FE
:1002A0004F913F912F910F900FBE0F901F90189577
:1002B0001F920F920FB60F9211242F933F934F93DB
:1002C0005F936F937F938F939F93AF93BF93EF93BE
:1002D000FF930E946400FF91EF91BF91AF919F91B6
:1002E0008F917F916F915F914F913F912F910F90DF
:1002F0000FBE0F901F9018951F920F920FB60F927E
:1003000011242F933F934F935F936F937F938F931A
:100310009F93AF93BF93EF93FF930E946C00FF9165
:10032000EF91BF91AF919F918F917F916F915F916D
:100330004F913F912F910F900FBE0F901F901895E6
:100340001F920F920FB60F9211242F933F934F934A
:100350005F936F937F938F939F93AF93BF93EF932D
:10036000FF930E947400FF91EF91BF91AF919F9115
:100370008F917F916F915F914F913F912F910F904E
:100380000FBE0F901F9018951F920F920FB60F92ED
:1003900011242F933F934F935F936F937F938F938A
:1003A0009F93AF93BF93EF93FF930E947C00FF91C5
:1003B000EF91BF91AF919F918F917F916F915F91DD
:1003C0004F913F912F910F900FBE0F901F90189556
:1003D0001F920F920FB60F9211242F933F934F93BA
:1003E0005F936F937F938F939F93AF93BF93EF939D
:1003F000FF930E948400FF91EF91BF91AF919F9175
:100400008F917F916F915F914F913F912F910F90BD
:100410000FBE0F901F9018951F920F920FB60F925C
:1004200011242F933F934F935F936F937F938F93F9
:100430009F93AF93BF93EF93FF930E948C00FF9124
:10044000EF91BF91AF919F918F917F916F915F914C
:100450004F913F912F910F900FBE0F901F901895C5
:100460001F920F920FB60F9211242F933F934F9329
:100470005F936F937F938F939F93AF93BF93EF930C
:10048000FF930E949400FF91EF91BF91AF919F91D4
:100490008F917F916F915F914F913F912F910F902D
:1004A0000FBE0F901F9018951F920F920FB60F92CC
:1004B00011242F933F934F935F936F937F938F9369
:1004C0009F93AF93BF93EF93FF930E949C00FF9184
:1004D000EF91BF91AF919F918F917F916F915F91BC
:1004E0004F913F912F910F900FBE0F901F90189535
:1004F0001F920F920FB60F9211242F933F934F9399
:100500005F936F937F938F939F93AF93BF93EF937B
:10051000FF930E94A400FF91EF91BF91AF919F9133
:100520008F917F916F915F914F913F912F910F909C
:100530000FBE0F901F9018951F920F920FB60F923B
:1005400011242F933F934F935F936F937F938F93D8
:100550009F93AF93BF93EF93FF930E94AC00FF91E3
:10056000EF91BF91AF919F918F917F916F915F912B
:100570004F913F912F910F900FBE0F901F901895A4
:100580001F920F920FB60F9211242F933F934F9308
:100590005F936F937F938F939F93AF93BF93EF93EB
:1005A000FF930E94B400FF91EF91BF91AF919F9193
:1005B0008F917F916F915F914F913F912F910F900C
:1005C0000FBE0F901F9018951F920F920FB60F92AB
:1005D00011242F933F934F935F936F937F938F9348
:1005E0009F93AF93BF93EF93FF930E94BC00FF9143
:1005F000EF91BF91AF919F918F917F916F915F919B
:100600004F913F912F910F900FBE0F901F90189513
:100610001F920F920FB60F9211242F933F934F9377
:100620005F936F937F938F939F93AF93BF93EF935A
:10063000FF930E94C400FF91EF91BF91AF919F91F2
:100640008F917F916F915F914F913F912F910F907B
:100650000FBE0F901F9018951F920F920FB60F921A
:1006600011242F933F934F935F936F937F938F93B7
:100670009F93AF93BF93EF93FF930E94CC00FF91A2
:10068000EF91BF91AF919F918F917F916F915F910A
:100690004F913F912F910F900FBE0F901F90189583
:1006A0001F920F920FB60F9211242F933F934F93E7
:1006B0005F936F937F938F939F93AF93BF93EF93CA
:1006C000FF930E94D400FF91EF91BF91AF919F9152
:1006D0008F917F916F915F914F913F912F910F90EB
:1006E0000FBE0F901F9018951F920F920FB60F928A
:1006F00011242F933F934F935F936F937F938F9327
:100700009F93AF93BF93EF93FF930E94DC00FF9101
:10071000EF91BF91AF919F918F917F916F915F9179
:100720004F913F912F910F900FBE0F901F901895F2
:100730001F920F920FB60F9211242F933F934F9356
:100740005F936F937F938F939F93AF93BF93EF9339
:10075000FF930E94E400FF91EF91BF91AF919F91B1
:100760008F917F916F915F914F913F912F910F905A
:100770000FBE0F901F901895853008F081C068302B
:1007800008F080C04130D9F58230A9F018F48130EA
:1007900031F07AC08330D9F0843029F175C02AB3A2
:1007A00081E090E002C0880F991F6A95E2F7822BE2
:1007B0008ABB80E0089527B381E090E002C0880FF3
:1007C000991F6A95E2F7822B87BB80E0089524B3D6
:1007D00081E090E002C0880F991F6A95E2F7822BB2
:1007E00084BB80E0089521B381E090E002C0880FCF
:1007F000991F6A95E2F7822B81BB80E00895411131
:1008000045C08230B1F018F4813031F041C08330FE
:10081000E9F0843041F13CC02AB381E090E002C0AD
:10082000880F991F6A95E2F7809582238ABB80E042
:10083000089527B381E090E002C0880F991F6A9560
:10084000E2F78095822387BB80E0089524B381E09E
:1008500090E002C0880F991F6A95E2F78095822385
:1008600084BB80E0089521B381E090E002C0880F4E
:10087000991F6A95E2F78095822381BB80E00895F5
:1008800081E0089581E0089581E0089581E0089570
:1008900081E00895853008F04AC0683008F049C00A
:1008A0008230C1F018F4813031F045C0833009F155
:1008B000843071F140C08AB381113FC02BB381E015
:1008C00090E002C0880F991F6A95E2F7822B8BBBDC
:1008D00080E0089587B3811132C028B381E090E0B1
:1008E00002C0880F991F6A95E2F7822B88BB80E0CF
:1008F000089584B3811125C025B381E090E002C042
:10090000880F991F6A95E2F7822B85BB80E00895D6
:1009100081B3811118C022B381E090E002C0880F3A
:10092000991F6A95E2F7822B82BB80E0089581E0EF
:10093000089581E0089581E0089581E0089581E0BF
:10094000089581E0089581E00895853008F070C031
:10095000683008F06FC0823019F118F4813039F036
:100960006BC08330A9F1843009F44AC065C08AB3F2
:1009700021E030E0062E02C0220F331F0A94E2F776
:1009800090E08223932302C0959587956A95E2F7BC
:10099000019709F053C08BB328272BBB80E0089543
:1009A00087B321E030E0062E02C0220F331F0A94E5
:1009B000E2F790E08223932302C0959587956A958C
:1009C000E2F70197E9F588B3282728BB80E008956E
:1009D00084B321E030E0062E02C0220F331F0A94B8
:1009E000E2F790E08223932302C0959587956A955C
:1009F000E2F7019739F585B3282725BB80E00895F4
:100A000081B321E030E0062E02C0220F331F0A948A
:100A1000E2F790E08223932302C0959587956A952B
:100A2000E2F7019789F482B3282722BB80E008957A
:100A300081E0089581E0089581E0089581E00895BE
:100A400081E0089581E0089581E008958091880013
:100A5000863040F48F5F8093880060E081E00E94E0
:100A6000A504089561E081E00E94A504089540E096
:100A700062E084E00E94BC0362E084E00E944A04D9
:100A800041E060E081E00E94BC0341E061E081E080
:100A90000E94BC038FB780688FBF85B78C7F85BFEE
:100AA00085B7826085BF8BB780648BBF66E275E0D7
:0C0AB00081E00E943C00FFCFF894FFCFD3
:00000001FF
